:020000040800F2
:10000000685F0020211B0008C1030008C30300082B
:10001000C5030008C7030008C9030008000000006A
:10002000000000000000000000000000290200089D
:10003000CB030008000000006D0200080D1A000844
:100040003B1B00083B1B00083B1B00083B1B000838
:100050003B1B00083B1B00083B1B00083B1B000828
:100060003B1B00083B1B00083B1B00083B1B000818
:100070003B1B00083B1B00083B1B00083B1B000808
:100080003B1B00083B1B00083B1B00083B1B0008F8
:100090002D1800083B1B00083B1B00083B1B0008F9
:1000A0003B1B0008A11300083B1B0008931100082C
:1000B000DD070008ED070008FD0700083B1B0008EE
:1000C0003B1B00083B1B00083B1B00083B1B0008B8
:1000D0003B1B00083B1B00083B1B00083B1B0008A8
:1000E0003B1B00083B1B00083B1B00083B1B000898
:1000F0003B1B00083B1B00083B1B00083B1B000888
:100100003B1B00083B1B00080D0800083B1B0008B8
:100110003B1B00083B1B00083B1B00083B1B000867
:100120003B1B00083B1B00083B1B00083B1B000857
:1001300000F002F800F068F80AA090E8000C824491
:100140008344AAF10107DA4501D100F05DF8AFF26E
:10015000090EBAE80F0013F0010F18BFFB1A43F0A5
:1001600001031847AC7C0000CC7C00000A444FF02F
:10017000000C10F8013B13F0070408BF10F8014B06
:100180001D1108BF10F8015B641E05D010F8016B4B
:10019000641E01F8016BF9D113F0080F1EBF10F8AF
:1001A000014BAD1C0C1B09D16D1E58BF01F801CBD2
:1001B000FAD505E014F8016B01F8016B6D1EF9D555
:1001C0009142D6D37047000000230024002500266A
:1001D000103A28BF78C1FBD8520728BF30C148BFAA
:1001E0000B607047642906F07984752906F07684DF
:1001F000632906F0C485732906F0C985002070477D
:100200001FB51FBD10B510BD06F057FE1146FFF714
:10021000F7FF00F08FF806F075FE03B4FFF7F2FF6A
:1002200003BC01F02DFC0000224B19680868B0E8FF
:10023000F00F80F30988BFF36F8F4FF0000080F359
:1002400011884EF00D0E704700000000064800684F
:10025000006880F3088862B661B6BFF34F8FBFF3C2
:100260006F8F00DF00BF00BF08ED00E0EFF30980F3
:10027000BFF36F8F0F4B1A6820E9F00F106008B5BD
:100280004FF0500080F31188BFF34F8FBFF36F8F93
:1002900004F006FB4FF0000080F31188BDE8084031
:1002A00019680868B0E8F00F80F30988BFF36F8F12
:1002B000704700BF8C000020EFF3058070470000FE
:1002C0007CB505F0A1FC00240520CDE900044FF425
:1002D00000762346324620A1234804F053F8042533
:1002E000CDE900540023AA0120A1244804F04AF8D3
:1002F0000220CDE900040023324621A1234804F066
:1003000041F80320CDE900040023802220A12348E6
:1003100004F038F8CDE900540023324620A12348E8
:1003200004F030F82248006804F057F8BDE87C403B
:1003300005F084BC1CB505F0FDFD1D49042000231B
:10034000CDE9000182011BA1AFF28B0004F01AF885
:1003500004F0BEFB00201CBD42616C616E63655FF2
:100360007461736B00000000116900084D50553630
:100370003035305F7461736B00000000D563000896
:1003800073686F775F7461736B0000002962000807
:100390006C65645F7461736B00000000930A000871
:1003A000444154415F7461736B0000006B15000899
:1003B0000000002073746172745F7461736B0000DD
:1003C0007047FEE7FEE7FEE7FEE770470CB5002248
:1003D0004C4800920192016841F4803101604FF471
:1003E000A063016801F4003101910099491C00915A
:1003F000019911B900999942F3D10168890333D564
:100400000121019140490A6842F010020A600A681D
:1004100022F003020A600A6842F002020A604168A0
:10042000416041684160416841F4806141604168D8
:1004300021F47C114160416841F4E8114160016898
:1004400041F08071016001688901FCD5416821F0AB
:1004500003014160416841F0020141604168C1F31C
:1004600081010229FAD10CBD01920CBD254810B5BD
:10047000016841F0010101604168244A1140416076
:100480000168234A11400160016821F48021016064
:10049000416821F4FE0141604FF41F018160FFF7C4
:1004A00095FF1C494FF00060086010BD154A10B55B
:1004B0005068194B10F00C01184803D0042901D0E2
:1004C000082901D0036012E05168536801F47011EB
:1004D0004FF0020413F4803F04EB914102D05368C3
:1004E0009B0301D50E4B00E00B4B59430160516853
:1004F0000A4AC1F30311121D515C0268CA4002602E
:1005000010BD000000100240002002400000FFF873
:10051000FFFFF6FE08ED00E000127A000400002064
:1005200000093D0010B5012188B0084601F0B8FD72
:1005300001210C2001F0ABFD0121084601F0A7FDCF
:100540000121B64801F046FC0121B54801F042FC0A
:100550004FF40040ADF80C0004248DF80F4003A9BF
:10056000B04801F0ACFB0820ADF80C008DF80F404E
:1005700003A9AD4801F0A3FB684602F087FA00200A
:100580004FF6FF71ADF80410ADF80000ADF80600AD
:10059000ADF8020024076946204601F0F3FF00236E
:1005A0001A460321204602F012FB04A802F081FA49
:1005B0000A21ADF8181004A9204602F09BF9012188
:1005C000204602F0ADFC01221146204602F097FAC7
:1005D0000021204602F07BFC0121204602F07AFA3D
:1005E00008B010BD10B588B00121082001F058FDF9
:1005F0000121042001F04BFD0320ADF81800042078
:100600008DF81B0006A9874801F059FB684602F0E7
:100610003DFA00204FF6FF71ADF80410ADF8000070
:10062000824CADF80600ADF802006946204601F0A4
:10063000A9FF00231A460321204602F0C8FA03A8A6
:1006400002F037FA0A21ADF8141003A9204602F08F
:1006500051F90121204602F063FC01221146204697
:1006600002F04DFA0021204602F031FC0121204623
:1006700002F030FAB4E710B588B00121022001F091
:100680000FFD0121042001F002FD0121084601F0C7
:10069000FEFCC020ADF8180004208DF81B0006A950
:1006A000604801F00CFB684602F0F0F900204FF6BC
:1006B000FF71ADF80410ADF800005D4CADF8060018
:1006C000ADF802006946204601F05CFF00231A469F
:1006D0000321204602F07BFA03A802F0EAF90A217E
:1006E000ADF8141003A9204602F004F901212046B8
:1006F00002F016FC01221146204602F000FA002109
:10070000204602F0E4FB0121204602F0E3F967E70E
:1007100010B588B00121042001F0C2FC012108209D
:1007200001F0B5FCC020ADF8180004208DF81B00C6
:1007300006A93D4801F0C3FA684602F0A7F9002077
:100740004FF6FF71ADF80410ADF80000394CADF86C
:100750000600ADF802006946204601F013FF0023B1
:100760001A460321204602F032FA03A802F0A1F94A
:100770000A21ADF8141003A9204602F0BBF80121AC
:10078000204602F0CDFB01221146204602F0B7F9C7
:100790000021204602F09BFB0121204602F09AF93D
:1007A0001EE70021022807D003280BD004280CD014
:1007B00005280DD0002070474FF08042B2F9240088
:1007C000918470471A4A243204E01A4A243201E024
:1007D000164A2432B2F90000118070474FF0804071
:1007E000018A018A21F0010101827047104810300E
:1007F0000188018821F00101018070470D48103007
:100800000188018821F001010180704707481030FC
:100810000188018821F00101018070470002300049
:100820000001180000080140000C0140000C0040CD
:10083000000400400008004008B50121082001F034
:1008400026FC4FF44060ADF8000010208DF8030046
:1008500002208DF8020069467F4801F030FA08BD99
:1008600070B57D48001D016821F470410160016888
:1008700041F440510160794C0120C4F8AC01C4F846
:10088000A801042004F5D47401F082F80025656005
:10089000042001F07DF8256070BD6F4810B5001D83
:1008A000016821F470410160016841F44051016028
:1008B0006A4C0020C4F8A801C4F8AC01042004F577
:1008C000D47401F065F8012020606060BDE810403C
:1008D000042001F05DB870B55F480024001D016878
:1008E00021F470410160016841F4004101605B4DF9
:1008F0000126C5F8AC61304601F04AF8C5F8A86198
:10090000012001F045F807E0641CE4B2FA2C03D999
:10091000FFF7C3FF012070BDD5F82C010028F3D1EB
:10092000C5F8A80170BD70B54C4C0025C4F8A8519D
:100930004948001D016821F470410160016841F4DB
:1009400040510160C4F8AC51022004F5D47401F0A8
:100950001FF801202060022001F01AF8256070BD08
:1009600070B53E4C0026C4F8A8613B48001D0168E4
:1009700021F470410160016841F44051016001259A
:10098000C4F8AC51022004F5D47401F001F82560DC
:10099000022000F0FDFF266070BD2DE9F041054604
:1009A0002D48001D016821F470410160016841F487
:1009B00040510160294E0027C6F8A8713C464FF00F
:1009C0000108E809C6F8AC016806050E022000F02F
:1009D000DFFFC6F8A881022000F0DAFFC6F8A87190
:1009E000022000F0D5FF641CE4B2082CE9D3BDE876
:1009F000F0812DE9F047814617480024001D016869
:100A000021F470410160016841F400410160134E1E
:100A1000254627464FF00108C6F8A871022000F0CD
:100A2000B7FFC6F8A8816006040ED6F82C0108B1FD
:100A3000641CE4B2012000F0ABFF6D1CEDB2082D88
:100A4000EAD3B9F1000F04D0FFF76DFF2046BDE8EF
:100A5000F087FFF785FFF9E7000C01400080214295
:100A600038B50121082001F012FB4FF40054ADF815
:100A7000004010208DF8030003200B4D8DF802007C
:100A80006946284601F01BF92146284601F081F904
:100A900038BD064C064DD4F8B401C043C4F8B401C7
:100AA000286803F031FEF6E7000C01400080214287
:100AB00018000020F8B50121382001F0E8FA3320B1
:100AC000ADF8000010245C4E8DF8034003258DF82E
:100AD00002506946304601F0F2F841F23000ADF8BC
:100AE0000000564F8DF803408DF802506946384695
:100AF00001F0E5F80420ADF800008DF80340504CFB
:100B00008DF802506946204601F0D9F81021304690
:100B100001F041F92021304601F03DF90121304634
:100B200001F039F90221304601F035F9102138463B
:100B300001F031F92021384601F02DF9A114384691
:100B400001F029F90421204601F025F9F8BD70B51E
:100B50000D460446012188B0480301F098FA0121AE
:100B6000102001F094FA4FF47072ADF81C20182296
:100B70008DF81F2003208DF81E0007A92F4801F0D3
:100B80009EF8ADF81440ADF810502E4E012500240B
:100B9000ADF81650ADF8124004A9304601F0F2FC51
:100BA0006020ADF800006802ADF80E00ADF802500C
:100BB000ADF80640ADF808406946304601F01BFD2F
:100BC0006946304601F04CFD6946304601F084FD2F
:100BD0006946304601F0BAFD0821304602F058F867
:100BE0000821304602F064F80821304602F06AF825
:100BF0000821304602F06CF80121304602F020F85E
:100C00000121304601F066FF0121304601F06CFF02
:100C100008B070BD08B50121042001F038FA4FF486
:100C20008050ADF8000048208DF803006946064862
:100C300001F045F808BD0000000C01400010014023
:100C400000140140003401400008014030B5002389
:100C5000DF4A012411B1C2F8804101E0C2F88031BD
:100C60000021C2F8B431050602D5C2F8B84101E04E
:100C7000C2F8B831C2F8B4414006491C000EC9B2EE
:100C80000829EED3C2F8804130BD70B5D14E0025A1
:100C900005F1B000C0B20021FFF7D8FF00210846DF
:100CA000FFF7D4FF00211020FFF7D0FF002406EB50
:100CB000C4000121405DFFF7C9FF641CE4B2802C31
:100CC000F5D36D1CEDB2082DE2D370BD00B5002147
:100CD0008D20FFF7BBFF00211420FFF7B7FF002195
:100CE000AF205DF804EBB1E700B500218D20FFF7E0
:100CF000ADFF00211020FFF7A9FF0021AE205DF815
:100D000004EBA3E710B40021B24B0A46002003EB2A
:100D1000C004401CC0B262548028F8D3491CC9B238
:100D20000829F3D310BCB0E710B57F2816D83F29A7
:100D300014D80723A3EBD10301F00701C1F1070485
:100D40000121A140A34CDBB204EBC000002AC25C2D
:100D5000C9B201D00A4300E08A43C25410BD2DE954
:100D6000F04F203A9C460D468246884602F0FF0925
:100D70000026DDF824B02FE0BCF10C0F08D0964916
:100D800001EB09100027845D200607D55A4609E0CB
:100D9000924909EB490001EB8000F3E7BBF1000F3A
:100DA00012D0002229465046FFF7BEFF60066D1C98
:100DB000040EEDB2A5EB0800604507D10AF1010071
:100DC000454600F0FF0A05E00122EBE77F1CFFB279
:100DD000082FD9D3761CF6B26645CDD3BDE8F08F87
:100DE0000346012000E05843491EC9B2FBD27047B8
:100DF0002DE9FF4F81B00027DDF838B01D4692463F
:100E000080463C464FF001094FEA5B0627E0281B6D
:100E1000401EC1B20A20FFF7E3FFBAFBF0F00A213F
:100E2000B0FBF1F201FB120027B9691E8C4201DA16
:100E300048B101273030C2B206FB0480C0B25B4625
:100E4000CDF8009006E006FB0480C0B25B4620228D
:100E5000CDF800900299FFF782FF641CE4B2AC4227
:100E6000D5D305B0BAE7F8B516460D4604460127B6
:100E700014E07A2C02D900241035EDB23A2D03D9B2
:100E800000242546FFF73EFF009732780C232946C1
:100E90002046FFF764FF0834E4B2761C307800285F
:100EA000E7D1F8BD38B50121102001F0F0F801219B
:100EB000084601F0ECF84EF20100ADF800001020F9
:100EC0008DF8030002208DF802006946444800F0C6
:100ED000F6FE012002F012FC002001F073F8002061
:100EE00002F0C0FB002002F009FC394C0020C4F8DD
:100EF000BC01642004F5DE7400F062FD0120206076
:100F00000021AE20FFF7A2FE0021D520FFF79EFEB4
:100F100000215020FFF79AFE0021A820FFF796FE3F
:100F200000213F20FFF792FE0021D320FFF78EFE25
:100F300000210846FFF78AFE00214020FFF786FEC9
:100F400000218D20FFF782FE00211420FFF77EFE96
:100F500000212020FFF77AFE00210220FFF776FE15
:100F60000021A120FFF772FE0021C020FFF76EFED6
:100F70000021DA20FFF76AFE00211220FFF766FE4B
:100F800000218120FFF762FE0021EF20FFF75EFEC7
:100F90000021D920FFF75AFE0021F120FFF756FE6D
:100FA0000021DB20FFF752FE00213020FFF74EFE2C
:100FB0000021A420FFF74AFE0021A620FFF746FEED
:100FC0000021AF20FFF742FEFFF79CFE38BD000076
:100FD000000022426C0100201E780008AA7300085D
:100FE0000010014008B50121082001F050F84FF42D
:100FF0008040ADF8000048208DF803006946224883
:1010000000F05DFE08BD21482149027812B1D1F8F7
:10101000382122B1D1F83811012904D005E000218E
:1010200001700120704701210170002070470021EC
:101030004FF4FA720020401C9042FCDB491C32291C
:10104000F8DB704710B5124CD4F838010F4B20B9BB
:1010500058680B2801DA401C5860D4F83801012880
:1010600005D1FFF7E4FFD4F83801012805D058680E
:101070000A2806D0012D04D001E00020586000208D
:1010800010BD012010BD0000000C01401C0000201C
:1010900000802142F0B50E460546012189B0C80204
:1010A00000F0F5FF0121042000F0F1FF4FF430645F
:1010B000ADF81C402821BE4F8DF81F1007A93846F7
:1010C00000F0FDFD2146384600F065FEADF81060E9
:1010D0000024B84EADF81450ADF81640ADF81240EB
:1010E00004A9304601F04EFA01250F20ADF800406A
:1010F000ADF80450ADF80800ADF80240ADF8064078
:101100006946304601F0F6FB0420ADF80000ADF86A
:101110000450ADF80240ADF80640ADF8084069460D
:10112000304601F0E7FB0C20ADF80000ADF80450AC
:10113000ADF80240ADF80640ADF8084069463046CB
:1011400001F0D8FB19208DF80C008DF80D408DF8BA
:101150000E408DF80F5003A800F007FD1B208DF8FE
:101160000C008DF80D408DF80E408DF80F5003A83F
:1011700000F0FBFC01221621304601F0C0FC0121E9
:10118000304601F0B1FC0121304601F0A3FC09B06A
:10119000F0BD2DE9F047DFF82082864D4FF6FF764F
:1011A00098F800004FF4FA7700064FF000042CD4B2
:1011B0000221284601F0B7FE38B30221284601F08B
:1011C000BEFE98F80000400628463BD501F094FE8C
:1011D000A8F80600B8F804104246884201D25663C7
:1011E00000E05463401A516B08445061516A401A40
:1011F00000D54042B84200DD51615069506288F824
:1012000000400021284601F0ADFD98F801000006DD
:1012100039D40421284601F086FEA0B304212846D3
:1012200001F08DFE98F801004006284648D501F0EF
:1012300065FEA8F80A00B8F80810424688420ED2A7
:1012400096630DE001F058FE0146A8F8041098F8E6
:10125000001041F0400188F800100221D2E79463A9
:10126000401A916B08449061916A401A00D540423F
:10127000B84200DD91619069906288F801400021D8
:10128000284601F07BFD98F80200000639D40821B9
:10129000284601F048FEA0B30821284601F04FFE81
:1012A00098F8020040064AD5444801F029FEA8F803
:1012B0000E00B8F80C10424688420ED2D6630DE0FC
:1012C00001F01CFE0146A8F8081098F8011041F042
:1012D000400188F801100221D2E7D463401AD16B93
:1012E0000844D061D16A401A00D54042B84200DDBE
:1012F000D161D069D06288F802400021284601F00F
:1013000051FD98F80300C146000647D41021284635
:1013100001F009FE002841D01021A846284601F01E
:101320000EFE99F803004D4640062BD5404601F0CD
:10133000E9FD6882298A88420FD22E640EE0284691
:1013400001F0DEFD0146A8F80C1098F8021041F0FB
:10135000400188F802100221D0E72C64401A296C61
:1013600008442862296B401A00D54042B84200DD8B
:101370002962286A2863EC7000214046BDE8F047E6
:1013800001F024BD4446404601F0BCFD2882E878C7
:10139000022140F04000E8702046EFE7BDE8F0870A
:1013A00004481030018821F00101018070470000DD
:1013B00000080140002C01402400002000040040EF
:1013C000FE4928B1012810D002281BD00520704703
:1013D00008680A6800F0010002F00202024308688F
:1013E00000F0806042EA1060704708680A6800F008
:1013F000010002F002020243086800F0006042EAC5
:101400005060704708680A6800F0010002F00202AC
:101410000243086800F0805042EA90607047F0B5DF
:101420000646E648059D0468640101D5002008E0F1
:101430000468240101D5012003E00068C0003CD508
:101440000220DF4C002704EB0014C4F8807599B328
:10145000F600D4F880753743C4F88075D4F88065F9
:1014600046EA8101C4F88015D4F8801541EA4201AA
:10147000C4F88015D4F8842503F00F0122F00F0280
:10148000C4F88425D4F884250A43C4F8842529792E
:10149000D5F8052041EA0221C4F88C152978D5F841
:1014A000012041EA0221C4F88815D4F8801541F0E2
:1014B0000101C4F88015F0BD01E0FF20FBE77605CF
:1014C000C7E738B500240091082322462146FFF7DC
:1014D000A6FF054640F6FF7301E0641CA4B228464F
:1014E000FFF76EFF072801D09C42F6D39C4201D340
:1014F000012038BD002038BD3CB5B24C00206D46FF
:10150000215C2954401CC0B20828F9D3294640F276
:101510000120FFF7D6FF00202118097A2954401C2A
:10152000C0B20828F8D3694640F20220FFF7C9FF8D
:101530003CBDA54AA34811880B0A0370417051882D
:101540000B0A8370C17091880A0A02719F4A417127
:1015500011880B0A0372417251880B0A8372C1729F
:1015600091880A0A02734173704708B500F05CFA6B
:1015700000901421684603F06DF8FFF7DAFFFFF7DB
:10158000BBFFF6E72DE9FC5F0024DDF830B0E8B3DF
:10159000E1B3DAB3D3B3491E401ECFB200F0FF0966
:1015A000521E5B1E0121D6B29DB2084600F06FFDAF
:1015B0000121082000F06BFD0121480600F070FDBC
:1015C00001214FF4EA1000F005FC4FF40070ADF873
:1015D000000003208DF802001820DFF8F4818DF858
:1015E00003006946404600F06AFB4FF48070ADF896
:1015F000000048208DF803006946404600F05FFB7C
:101600006E48002308380360016800E004E041F000
:1016100001010160021D08E00120BDE8FC9F641C7F
:10162000A4B2642C01D90220F7E71168C907F6D0EB
:10163000016882460160016801600168016001681B
:1016400041F01001016001680160016801605B49BF
:1016500014310B60D1F8008048EA8B7CC1F800C0DF
:10166000D1F8008048EA096CC1F800C0D1F800C088
:101670004CEA07570F600F6847EA06460E600E688F
:101680002E430E60016821F0010101604FF6F070F9
:1016900005E0641CA4B2844201D90320BDE71168AF
:1016A000C907F6D14B48016841F001010160494981
:1016B0001C310A6822F001020A60464A0C321468A2
:1016C00044F001041460021D14681460414A14328D
:1016D000146814603F4A40321360121D13600A6898
:1016E00042F001020A600168036034480C3001686E
:1016F00041F00201016014208DF8040001208DF8F2
:1017000005008DF806308DF8070001A800F02DFACD
:1017100001220221504601F0CBFE00207DE718B1E6
:10172000012804D0002070472448001D01E0234810
:101730000830006800F003007047F0B5204CDDE988
:10174000057504EB0014D4F8B06516F004061670A5
:10175000D4F8B02542D0D2080A60D4F8B01501F010
:1017600002011970D4F8B41501F00F013970D4F8E2
:10177000B8152970D4F8B815090A6970D4F8B815E5
:10178000090CA970D4F8B815090EE970D4F8BC1585
:101790002971D4F8BC15090A6971D4F8BC15090C73
:1017A000A971D4F8BC15090EE971C8B1012814D18A
:1017B00002480830016841F020010DE00864004053
:1017C000006000406C050020080100200E01002090
:1017D000000C01400066004001606CE6520DBBE762
:1017E0005548E7E755480178427802EB0121544A11
:1017F00011818178C27802EB0121524A118101796D
:10180000427902EB0121504A11818179C27902EBC0
:1018100001214E4A1181417A027A01EB02224C49A0
:101820004A80827A0A70C07A4870704710B588B0D2
:1018300003AC07A8CDE9000406AB05AA02A9002065
:10184000FFF77BFF02983D49A0F58072013A03D073
:10185000B0F5817F08D010E00020225C0A54401CC3
:10186000C0B20828F9D308E00820221812F8082C82
:101870000A54401CC0B21028F7D3FFF7B3FF08B0DA
:1018800010BD38B500240B4600902246214640F298
:101890000160FFF7C4FD054640F6FF7301E0641CDC
:1018A000A4B22846FFF78CFD072801D09C42F6D34E
:1018B0009C4201D3012038BD002038BD00B501464F
:1018C00086B00020FFF72BFF002816D002A8CDE934
:1018D000000105AB04AA03A90020FFF72EFF03981F
:1018E000122805D19DF8100010B99DF8140010B110
:1018F00000208DF808009DF8080006B000BD38B53E
:1019000000240B4600902246214640F20170FFF76A
:1019100086FD054640F6FF7301E0641CA4B228462C
:10192000FFF74EFD072801D09C42F6D39C4201D31D
:10193000012038BD002038BD0C6400407C0500202B
:10194000D8580020E4580020F0580020FC5800200F
:101950006800002010B5042000F047F938483949E4
:10196000394A0068B0FBF1F3B0FBF1F14FF47A7043
:1019700041431370012050804FF0E020026942F093
:10198000020202614161016941F00101016110BD82
:1019900070B54FF0E02500216C692B4AAB691278D5
:1019A0005043AA699A42FCD002D2A3EB020302E0A0
:1019B000A4EB02063344194413468142F1D370BDAF
:1019C00070B5044603F0C8FA01280CD01E4D688893
:1019D000844203D3B4FBF0F002F096FE6888B4FBB7
:1019E000F0F100FB11444FF47A706043BDE87040A1
:1019F000CEE770B5054600244FF47A7603E0304612
:101A0000FFF7C6FF641CAC42F9D370BD10B503F0FC
:101A1000A3FA012803D0BDE8104004F020B90A4819
:101A20004168491C416010BD10B503F095FA0128CA
:101A300003D0BDE8104003F098B80348406810BDDB
:101A40000400002040420F006C00002030BF7047AF
:101A500072B6704762B6704741060748826942F025
:101A6000010282610548426822F0E06242604268F9
:101A70000A4342607047000000100240000001402D
:101A8000704724490A885206FCD5224AC1B2121D69
:101A90001180704730B5044685B0012144F204003E
:101AA00000F0F5FA4FF40071ADF8101003218DF835
:101AB00012101820184D8DF8130004A9284600F0C4
:101AC000FEF82915ADF8101004208DF8130004A9B4
:101AD000284600F0F4F80020ADF804000094ADF8BA
:101AE0000600ADF80800ADF80C000C200B4CADF86A
:101AF0000A006946204600F049FB002240F22551C9
:101B0000204600F0C0FB0121204600F0B2FB05B0EA
:101B100030BD000000440040000801400038014092
:101B20000948804709480047FEE7FEE7FEE7FEE771
:101B3000FEE7FEE7FEE7FEE7FEE7FEE704480549AD
:101B4000054A064B704700006D040008310100088B
:101B500068590020685F0020685B0020685B0020F7
:101B60002849084328490860704730B50F23C278D8
:101B700001780125F2B1244A126801F1E02102F452
:101B8000E062C2F5E062120AC2F10404D340427876
:101B9000A24084781C401443220181F8002400787C
:101BA00000F01F018D404009800000F1E020C0F8E6
:101BB000005130BD01F01F0085404809800000F150
:101BC000E020C0F8805130BD104A114001430E485A
:101BD000001F016070470C4A121D0029116801D0D6
:101BE000014300E08143116070474FF0E021042879
:101BF000086903D020F004000861704740F0040039
:101C0000FAE700000000FA050CED00E080FFFF1F7E
:101C10008F4910B5884206D10121042000F049FA0D
:101C2000002104203BE08B49884206D10121082095
:101C300000F03FFA0021082031E08749884206D1B0
:101C40000121102000F035FA0021102027E08349FF
:101C5000884206D10121202000F02BFA002120200B
:101C60001DE07F49884206D10121402000F021FA81
:101C70000021402013E07B49884206D101218020C9
:101C800000F017FA0021802009E0774988420AD144
:101C900084150121204600F00CFA00212046BDE801
:101CA000104000F006BA10BD10B50121084600F042
:101CB00000FA0021BDE81040012000F0FAB9F0B5AB
:101CC000CC78002204F00F03E40601D58C7823437E
:101CD0000C784FF00F0C14F0FF0F4FF0010E1BD0DB
:101CE00005680E880EFA02F42640A64210D196002E
:101CF0000CFA06F725EA070703FA06F5CE783D4306
:101D0000282E02D0482E02D002E0446100E0046197
:101D1000521C082AE5D305600A88FF2A1CD94468AA
:101D2000002202F108060EFA06F50E882E40AE4299
:101D30000ED196000CFA06F7BC4303FA06F7CE78EC
:101D40003C43282E00D14561CE78482E00D1056154
:101D5000521C082AE5D34460F0BD4FF6FF710180A4
:101D6000022181700421C1707047024600209268F0
:101D70000A4200D001207047806880B27047024656
:101D80000020D2680A4200D001207047C06880B2AB
:101D9000704701617047416170470AB10161704746
:101DA00041617047C160704741F480328261816156
:101DB00082618169806970472C4B10B51A684FF6B3
:101DC0008074224042EA00100843186010BD284980
:101DD000C8617047F0B5254C002801DAE36900E0DE
:101DE0006368450D2E0185B2C0F30157B540C0F3BD
:101DF0000342032F05D0C6020AD503269640B343FB
:101E000007E023F07062636823F07063636002E0B0
:101E1000AB4343F0706201B12A43002801DAE2616A
:101E2000F0BD6260F0BD10B58A0721F003040F49D0
:101E3000120F21440F238C6893409C438C608B6865
:101E4000904003438B6010BD0949C1F8DC00704726
:101E500000080140000C0140001001400014014046
:101E600000180140001C014000200140000001401A
:101E700000002042A548016841F00101016041686D
:101E8000A34A114041600168A24A11400160016803
:101E900021F480210160416821F4FE0141604FF48A
:101EA0001F018160704799490A6822F480320A60F4
:101EB0000A6822F480220A60B0F5803F07D0B0F5AE
:101EC000802F03D1086840F4A0200860704708689C
:101ED00040F48030F9E70346002059098B4A012974
:101EE0000AD002290AD0516A03F01F02012393404D
:101EF0000B4200D0012070471168F5E7116AF3E743
:101F000018B500204FF4A06400903120FFF7E3FFE4
:101F10000099491C0091A14201D00028F5D0312040
:101F2000FFF7D9FF002800D0012018BD774A1168BB
:101F300021F0F80141EAC00010607047764908605E
:101F40007047724B5A68084322F47C121043586061
:101F500070477149086670476C4A516821F0030167
:101F60000143516070476948406800F00C007047B9
:101F7000664A516821F0F001014351607047634A9D
:101F8000516821F4E0610143516070475F4A516834
:101F900021F4605141EAC000506070475B4A00295B
:101FA000517A01D0014300E08143517270475A4990
:101FB000C1F8D8007047554A516821F440410143A7
:101FC000516070475149002281F8202081F820207B
:101FD000012802D0042802D1052081F82000704792
:101FE0004E490860704749490A6A02430A627047CD
:101FF0004A4944390860704730B5444A5168484BF3
:1020000011F00C0103D0042901D0082901D003608C
:1020100012E05168536801F470114FF0020413F498
:10202000803F04EB914102D053689B0301D53D4BA7
:1020300000E03B4B5943016051680F2303EA111143
:10204000394B5C5C0168E14041605468072505EA52
:1020500014241C5D21FA04F48460546805EAD42435
:102060001B5DD940C1605268032303EA92322E4BB4
:102070001B1F9A5CB1FBF2F1016130BD234A0029BC
:10208000516901D0014300E08143516170471F4A0B
:102090000029916901D0014300E0814391617047BB
:1020A0001A4A0029D16901D0014300E08143D1617E
:1020B0007047164A0029D16801D0014300E08143EE
:1020C000D1607047114A0029116901D0014300E035
:1020D00081431161704711494039086070470E49CA
:1020E000C86470470949C87170470848416A41F09F
:1020F000807141627047054A0146002092680A4299
:1021000000D00120704701498872704700100240DA
:102110000000FFF8FFFFF6FE00004242800442424A
:1021200000127A0000093D007C000020C44910B56F
:1021300088420AD101218C032046FFF7BAFF2046CE
:10214000BDE810400021FFF7B4BFBE49884202D16C
:1021500001214C0410E0BC49884202D101218C04C9
:102160000AE0BA49884202D10121CC0404E0B8490E
:1021700088420AD101210C052046FFF7A3FF204623
:10218000BDE810400021FFF79DBF10BD30B50446EB
:10219000008A85B00D464CF6FF710840E98801437E
:1021A0002182A0894EF6F3110840A9882A8911439B
:1021B0006A8902431143A181A08A4FF6FF4108407A
:1021C000A9890143A1826846FFF716FF9C48844213
:1021D00001D1039800E00298A189090400EBC00135
:1021E00001EB0010296801D5490000E08900B0FB2F
:1021F000F1F06422B0FBF2F109010B096FF0180550
:102200006B4300EB8300A3891D044FF0320306D516
:1022100003EBC000B0FBF2F000F0070005E003EBB9
:102220000010B0FBF2F000F00F000843208105B071
:1022300030BD4FF41651016000218180C1800181C1
:102240000C2242818181704710B5028A4FF2FF0350
:102250001A400B884C8823438C88C9880C4323433D
:102260001343038210BD0021018041808180C18021
:1022700070470029818902D041F4005101E021F426
:1022800000518181704710B5C1F3421301F01F0462
:102290000121A140012B07D0022B07D01430002AC6
:1022A000026805D00A4304E00C30F8E71030F6E786
:1022B0008A43026010BD002A828A01D00A4300E0EE
:1022C0008A4382827047028A22F00F020282028AC7
:1022D0000A4302827047828922F4006282818289E5
:1022E0000A43828170470029818902D041F00201AE
:1022F00001E021F0020181817047028A22F0200270
:102300000282028A0A43028270470029018A02D0AF
:1023100041F4804101E021F4804101827047C1F322
:102320000801818070478088C0F308007047818968
:1023300041F0010181817047028BD2B20283028B8E
:1023400042EA012101837047028B02F47F4202833B
:10235000028B0A43028370470029818A02D041F030
:10236000200101E021F02001818270470029818A4B
:1023700002D041F0100101E021F01001818270478C
:102380000029818A02D041F0080101E021F0080112
:10239000818270470029818902D041F4004101E027
:1023A000C1F30E01818170470029818A02D041F476
:1023B000006101E021F4006181827047828A22F08D
:1023C00004028282828A0A43828270470029818ABB
:1023D00002D041F0020101E021F002018182704748
:1023E0000246002012880A4200D001207047C943EB
:1023F0000180704770B501F01F0501260024C1F36C
:10240000421306FA05F2012B0FD0022B0FD0838A5C
:102410004FEA11210088134206FA01F600EA06008D
:1024200001D000B10124204670BD8389F0E7038A02
:10243000EEE70A0A01219140C9430180704700007C
:10244000003801400044004000480040004C00407B
:1024500000500040F94910B5884202D10121C4144E
:1024600086E0B0F1804F09D0F54988420DD10121B5
:102470000220FFF727FE0021022064E00121084628
:10248000FFF720FE002101205DE0EE49884206D1E1
:1024900001210420FFF716FE0021042053E0EA4941
:1024A000884206D101210820FFF70CFE00210820F8
:1024B00049E0E649884206D101211020FFF702FEDB
:1024C000002110203FE0E249884206D1012120206E
:1024D000FFF7F8FD0021202035E0DE49884202D1D7
:1024E0000121441444E0DC49884202D10121CC049A
:1024F0003EE0DA49884202D101210C0538E0D84992
:10250000884202D101214C0532E0D649884206D1E9
:1025100001214020FFF7D6FD0021402013E0D249E1
:10252000884206D101218020FFF7CCFD00218020C8
:1025300009E0CE4988420AD1841501212046FFF7DF
:10254000C1FD00212046BDE81040FFF7BBBDC849D2
:10255000884202D101210C040AE0C649884202D116
:1025600001214C0404E0C44988420AD101218C04B1
:102570002046FFF79EFD2046BDE810400021FFF7F2
:1025800098BD10BD30B50288AC4CB24DA0420DD004
:10259000A8420BD0B0F1804F08D0A94B984205D08B
:1025A000A84B984202D0A84B984203D122F0700366
:1025B0004A881A43A54B984206D0A54B984203D0AF
:1025C00022F44073CA881A4302808A8882850A8866
:1025D0000285A0420AD0A84208D0A54A904205D060
:1025E000A44A904202D0A44A904201D1097A0186BD
:1025F0000121818230BD30B5028C22F001020284BB
:10260000028C8388048B22F0020224F073050C886C
:102610002C430D8915434A882A43884DA8420BD084
:102620008C4DA84208D0924DA84205D0914DA842A9
:1026300002D0914DA8420DD122F008054A8923F419
:1026400040732A4322F004058A882A438D891D435A
:10265000CB892B4383800483C9888186028430BD63
:1026600070B5028C22F010020284028C8388048BE5
:102670000D8824F4E6464FF6FF7404EA0525354339
:102680000E8922F0200204EA061616434A8804EA5C
:1026900002123243694EB04202D06E4EB04215D1A2
:1026A00022F080064A8923F4406304EA021232438E
:1026B00022F040068A8804EA021232438E8904EA34
:1026C00086061E43CB8904EA830333438380058354
:1026D000C9880187028470BD70B5028C22F48072B3
:1026E0000284028C8388848B0D8824F07304254334
:1026F0000E894FF6FF7422F4007204EA0626164390
:102700004A8804EA022232434C4EB04202D0514E73
:10271000B04215D122F400664A8923F4405304EAFA
:102720000222324322F480668A8804EA022232437B
:102730008E8904EA06161E43CB8904EA0313334349
:1027400083808583C9888187028470BD70B5028CBF
:1027500022F480520284058C8288838B0C8823F4B7
:10276000E6464FF6FF7303EA0424344325F400568B
:102770000D8903EA053535434E8803EA06362E43B4
:102780002E4DA84202D0334DA84205D122F48045F7
:102790008A8903EA82122A4382808483C988A0F846
:1027A0004010068470BD828B22F440628283828B4B
:1027B0004FF6FF7303EA01210A4382837047828B3D
:1027C00022F00C028283828B0A4382837047028B41
:1027D00022F440620283028B4FF6FF7303EA012169
:1027E0000A4302837047F0B5048C24F0100404847B
:1027F000078B048C4FF6FF7527F4734705EA033304
:102800003B4305EA02221A430C4B05EA01169842A3
:102810000ED0104B98420BD0B0F1804F08D0084B2F
:10282000984205D0074B984202D0074B984225D1D9
:1028300024F02001314341F0100124E0002C01403C
:102840000004004000080040000C00400010004060
:102850000014004000340140004C01400050014091
:102860000054014000180040001C004000200040BF
:1028700000400140004401400048014024F0A00312
:102880000B4343F0100102830184F0BD028B22F060
:102890000C020283028B0A430283704770B5048CDA
:1028A00024F001040484058B048C4FF6FF7606EABD
:1028B0000313134325F0F305F84A2B4390420ED03F
:1028C000F74A90420BD0B0F1804F08D0F54A9042C1
:1028D00005D0F54A904202D0F44A904202D124F049
:1028E000020201E024F00A020A4342F001010383DC
:1028F000018470BD2DE9F84F0D4604460888E74F66
:10290000DFF89CC3DFF89C83DFF89C934988AA8892
:102910002B894FF0804A48B304282FD04FF6FF761A
:102920000828934632D0208C9E4620F48050208484
:10293000A38B208C06EA0132009223F4734306EA4B
:102940000B221A4306EA0E331343BC420AD06445F5
:1029500008D0544506D0444504D04C4502D0D34A53
:10296000944242D120F40050009940E02046FFF705
:1029700095FFE9882046BDE8F84F87E72046FFF736
:1029800032FFE9882046BDE8F84F20E7208C20F48C
:1029900080702084B4F81CE0208C06EA031306EA59
:1029A00001222EF0F30E43EA0B0343EA0E030092DA
:1029B000BC420AD0644508D0544506D0444504D0F2
:1029C0004C4502D0B94A944203D120F400700099DA
:1029D00001E020F42060084340F48070A383208449
:1029E000E9882046BDE8F84FE9E620F402400843B4
:1029F00040F48050A3832084E9882046BDE8F84F46
:102A0000D1E62DE9F0410C4600264988074601250C
:102A100001B90226A288012A00D102252088238933
:102A20000028384610D0FFF7DEFEE1883846FFF771
:102A3000CEFE23892A4631463846FFF72FFFE1882C
:102A40003846BDE8F04121E7FFF728FFE188384626
:102A5000FFF71CFF23892A4631463846FFF7C3FE9D
:102A6000E1883846BDE8F041B1E610B50A884B88E8
:102A7000CC881A438B8823431A430B891A434B890A
:102A800089891A430A43A0F8442010BD4FF6FF710C
:102A9000818000210180C180418001727047002146
:102AA000018041808180C180018141818181C1811A
:102AB000704700210180418001228280C180018114
:102AC00070470021018041808180C1800181418166
:102AD000818170470029018802D041F0010101E0A5
:102AE00021F0010101807047002930F8441F02D015
:102AF00041F4004101E0C1F30E0101807047002A5A
:102B0000828901D00A4300E08A4382817047818232
:102B100070471143A0F848107047002A828901D0FD
:102B20000A4300E08A4382817047018921F007014E
:102B300001817047028922F070020A4302817047C6
:102B400000B50346FFF7F6FF188940F0070018812B
:102B500000BD70B516460D46602904464FF00102CF
:102B600031460AD0FFF79AFE29462046FFF7E2FFDA
:102B7000208940F00700208170BDFFF734FEF3E7A5
:102B800030B504894FF6FF7505EA03231343E4B219
:102B90000B432343038130BD10B50446FFF7F0FF1C
:102BA000208940F07700208110BD10B50446FFF762
:102BB000E7FF208940F48040208110BD018582829A
:102BC0007047028822F070020A430280704770B595
:102BD0000589048B068C25F007050D434FF6FC4153
:102BE0000C4040F201110C434FF6FF7101EA031152
:102BF00026F022061143314305810483018470BD10
:102C0000028B22F070020A4302837047028B4FF658
:102C1000FF7322F4E04203EA01211143018370476C
:102C2000828B22F070020A4382837047828B4FF6B8
:102C3000FF7322F4E04203EA0121114381837047CC
:102C40000029018802D041F0800101E021F08001DB
:102C5000018070470029818802D041F0040101E021
:102C600021F00401818070470029818802D041F061
:102C7000080101E021F00801818070470029818866
:102C800002D041F0010101E021F001018180704793
:102C9000028B22F008020A4302837047002C014095
:102CA000003401400004004000080040000C0040D7
:102CB000028B4FF6FF7322F4006203EA01211143F5
:102CC0000183EAE7828B22F008020A438283E4E769
:102CD000828B4FF6FF7322F4006203EA0121114355
:102CE0008183DAE7028B22F004020A430283D4E7ED
:102CF000028B4FF6FF7322F4806203EA0121114335
:102D00000183CAE7828B22F004020A438283C4E76C
:102D1000828B4FF6FF7322F4806203EA0121114394
:102D20008183BAE7028B22F080020A430283B4E770
:102D3000028B4FF6FF73C2F30E0203EA0121114327
:102D40000183AAE7828B22F080020A438283A4E7F0
:102D5000828B4FF6FF73C2F30E0203EA0121114387
:102D600081839AE7028C22F002020A43028494E7EC
:102D7000028C22F008020A4302848EE7028C4FF68E
:102D8000FF7322F0200203EA01111143018484E75A
:102D9000028C4FF6FF7322F0800203EA0111114307
:102DA00001847AE7028C4FF6FF7322F4007203EA83
:102DB00001211143018470E7028C4FF6FF7322F466
:102DC000006203EA01211143018466E7028C4FF699
:102DD000FF7322F4005203EA0131114301845CE7DE
:102DE00010B50123048C8B409C430484038C8A40DF
:102DF0001343038410BD10B50423048C8B409C4303
:102E00000484038C8A401343038410BD30B501242D
:102E1000058C00F118038C40A543058489B108296D
:102E20000FD0091FC1F34E001844016821F4E0419E
:102E3000016001684FF6FF7303EA0222114301604B
:102E400030BD03EB5100016821F0700101600168A1
:102E5000F4E70029018802D041F0020101E021F0ED
:102E60000201018019E70029018802D041F0040124
:102E700001E021F0040101800FE70029818802D0E0
:102E800041F0800101E021F08001818005E70288A6
:102E900022F00802028002880A430280FDE682884E
:102EA00022F07002828082880A438280F5E60289DD
:102EB00022F00702028102890A430281EDE60289BB
:102EC00022F08002028102890A430281E5E68184C0
:102ED000E3E68185E1E68186DFE60187DDE681873D
:102EE000DBE6A0F84010D8E6028822F440720280A7
:102EF00002880A430280D0E6808ECEE6008FCCE6C0
:102F0000808FCAE6B0F84000C7E6808CC5E6008D29
:102F1000C3E602460020128A0A4200D00120BCE625
:102F2000C9430182B9E602460020138A92890B4206
:102F300002EA010202D0002A00D00120ADE6C94316
:102F40000182AAE6FE4910B588424FF0010101D185
:102F50004C0601E04FF080642046FFF7B3F82046AE
:102F6000BDE810400021FFF7ADB810B5036800229E
:102F700023F002030360036843F0010303604FF68C
:102F8000FF7300E0521C4468E40701D19A42F9D172
:102F90004268D2073ED08A79012A02683CD022F0EA
:102FA00080020260CA79012A026838D022F0400209
:102FB00002600A7A012A026834D022F020020260FC
:102FC0004A7A012A026830D022F0100202608A7A1E
:102FD000012A02682CD022F008020260CA7A012A73
:102FE000026828D022F0040202608A78CC78920726
:102FF00042EA04620C7942EA04424C79098842EAC6
:103000000452491E0A43C261016821F001010160B6
:10301000002114E0002010BD42F08002C1E742F020
:103020004002C5E742F02002C9E742F01002CDE7B6
:1030300042F00802D1E742F00402D5E7491C426899
:10304000D20701D09942F9D14068C007E2D10120EE
:1030500010BDF0B5827ABB4D012191402A6842F043
:1030600001022A60B74E1C3632688A433260B54A84
:10307000047BB54B0C32A4B914688C4314604488AB
:10308000C78844EA0744877A03EBC707C7F8404676
:103090000488878844EA0744877A03EBC707C7F8A0
:1030A0004446047B012C12D114680C431460847ACA
:1030B000026803EBC4044FEA3242C4F84026847A23
:1030C000426803EBC4034FEA3242C3F844269D4AE8
:1030D000C37A121D002B136806D00B431360994A64
:1030E0000389143213B104E08B43F7E713688B4371
:1030F00013600389012B02D113680B431360407BDB
:10310000012802D1306808433060286820F00100AF
:103110002860F0BD00218171C1710172417281721C
:10312000C1728170C17003210171022141710121BD
:103130000180704783490A6842F001020A600A6808
:1031400043F60E739A430A600A6842EA0020086058
:10315000086820F00100086070470029016802D06B
:1031600041F4803101E021F4803101607047002991
:10317000016813D041F080010160D0F8841141F45E
:103180008071C0F88411D0F8941141F48071C0F8B6
:103190009411D0F8A41141F4807112E021F0800163
:1031A0000160D0F8841121F48071C0F88411D0F846
:1031B000941121F48071C0F89411D0F8A41121F475
:1031C0008071C0F8A411704730B5024600209368A2
:1031D0005B0108D49068000101D5012003E09068EC
:1031E000C00037D5022002EB0012D2F8803103F084
:1031F0000103C2F880310B7A73B3D2F880414D6875
:103200001C434B7A43EAC5031C43C2F880418B7AC6
:1032100003F00F038B72D2F8843123F00F03C2F84E
:103220008431D2F884318C7A2343C2F88431CB7A4A
:10323000CC6843EA0423C2F88831CB7B096943EAAE
:103240000121C2F88C11D2F8801141F00101C2F8BD
:10325000801130BD042030BDD2F880314C7A234338
:103260000C8843EA4453C2F88031D0E7002221B1F0
:10327000012905D0022906D112E08268334801E015
:103280008268334802403349501A8A4214D00ADC1B
:10329000A2B16FF0806010180FD002280CD10FE09F
:1032A00082682D48EEE7B0F5007F09D02B49401821
:1032B00003D0B0F5003F03D00020704702207047D4
:1032C0000120704741B101290AD0022903D1816848
:1032D00041F4000181607047816841F08001F9E7A5
:1032E000816841F40041F5E710B500EB0113D3F814
:1032F000B04114F004041472D3F8B04145D0E4088E
:103300005460D3F8B04104F002045472D3F8B441CD
:1033100004F00F049472D3F8B441240AD474D3F89F
:10332000B841D472D3F8B841240A1473D3F8B84121
:10333000240C5473D3F8B841240E947310E00000A9
:10334000006400400066004000600040030000048C
:103350000003000800010008000003100001FFF74F
:10336000D3F8BC41D473D3F8BC41240A1474D3F805
:10337000BC41240C5474D3F8BC311B0E937439B186
:10338000016941F02001016110BD640D1460B8E7CE
:10339000C16841F02001C16010BD21B1016941F057
:1033A000200101617047C16841F02001C160704790
:1033B0000246002029B1012902D1106900F0030062
:1033C0007047D068FAE700234FF6FF7221B1012958
:1033D00017D0022924D03AE0016821F0020141F01F
:1033E0000101016000E0521E416801F00301012962
:1033F00001D0002AF7D1406800F00300012823D152
:1034000024E0016821F00301016000E0521E4168E0
:10341000890701D0002AF9D14068800714D115E04E
:10342000016821F0010141F00201016000E0521E3B
:10343000416801F00301022901D0002AF7D1406858
:1034400000F00300022801D0002300E00123184609
:1034500070470268002122F0010242F0020202607D
:10346000406800F00300022800D10121084670479F
:1034700002684FF6FF71002322F00202026000E0B2
:10348000491E4268920701D50029F9D1406880079A
:1034900000D40123184670478069C0F30210000170
:1034A00070478069000E70478069C0F3074070471D
:1034B000002A426901D00A4300E08A434261704712
:1034C0000246002011F4700F03D0926904E001203D
:1034D0007047CB0104D552680A401103F7D17047F9
:1034E0000B0101D59268F7E78B0101D5D268F3E7AC
:1034F0001269F1E7534A914202D10021816170477C
:10350000C1F313028B0101D5C26070474B0101D595
:1035100002617047090101D58260704742607047BF
:103520000246002053690B424AD0B1F5807F3BD060
:1035300013DC08292ED007DC012926D0022927D048
:1035400004293DD1D0682BE0102925D0202926D090
:10355000402935D11069102130E0B1F5004F2BD052
:103560000BDCB1F5007F22D0B1F5806F22D0B1F530
:10357000006F25D19069702120E0B1F5803F11D016
:10358000B1F5003F1CD15068E5E790682E4915E081
:10359000D06802E0D068DEE7106903210EE0106910
:1035A00008210BE05068FBE79069012106E0906973
:1035B000022103E0906900E05068042100F03BB86C
:1035C000704730B5082310240422B1F5007F1DD0C8
:1035D00010DC202929D007DC012921D0042922D0A0
:1035E000082900D1C46030BD402920D0B1F5807FCA
:1035F000F9D10BE00025B1F5004F06D008DCB1F59C
:10360000806F03D0B1F5006FEDD18561426030BDB0
:10361000B1F5803F0DD0B1F5003FF8D1446030BD29
:103620000949816030BDC36030BD036130BD0461B4
:1036300030BD436030BD024600200A4200D0012068
:10364000704700007000F0300101010010B501204A
:10365000FEF741FDBDE810400020FEF73CBD1F49CC
:10366000086070471D49091F086070471B49843175
:10367000086070471A4A118821F460710143118073
:103680007047174A118821F07F010143118070476C
:10369000134A08B52C3A10440090016008BD104947
:1036A00008B52C3908440090008808BD0B489C30B0
:1036B0000068C0B270470A480830018841F0010133
:1036C000018070470548A0300068C0B270470448C8
:1036D0000830018841F002010180704704860D42E4
:1036E0002C6C004010B501210C072046FEF7EAFCC7
:1036F0002046BDE810400021FEF7E4BC21490862E5
:1037000070472049086170471F4A116821F0E001A5
:103710000143116070471B49C1F8A00070471A4B64
:103720001A6822F0030202431A601848026842F045
:1037300004020260012905D020BF016821F00401C4
:103740000160704730BFF8E70F48016841F004019D
:103750000160016841F0020101600C48016841F01C
:103760000401016030BF7047074A014600205268DB
:103770000A4200D00120704703490A6842EA8000EB
:103780000860704700000E420070004010ED00E03D
:1037900000F108014FF0FF32C0E90112C160016180
:1037A00000210160704700210161704742684A6052
:1037B00093688B6093685960916008610168491C47
:1037C0000160704730B50C68621C02D000F108023D
:1037D00002E0026904E01A4653681D68A542FAD95E
:1037E00053684B6099608A60516008610168491CA8
:1037F000016030BDD0E9013201699A60D0E901234E
:103800005A604A68824201D182684A60002202619D
:103810000868401E0860704770B50D46040005D169
:1038200040F21B12F2A1F7A003F0DAF802F0ECF973
:10383000D4E90F20216802FB001161600021A1631F
:103840002168A1600A46D4E90F01401E00FB012156
:10385000E16021464FF0FF3001F8440F487004F159
:1038600010004DB1FFF794FF04F12400FFF790FF23
:1038700002F0E4F9012070BD21690029F8D001F0BF
:10388000A3FA0028F4D0E3494FF080500860BFF35A
:103890004F8FBFF36F8FEBE72DE9F04117460E46D0
:1038A000050005D14FF4C472D1A1D6A003F098F859
:1038B000BEB105FB06F0543002F056FA04000ED0FB
:1038C00004F154007EB12060C4E90F562046012166
:1038D000FFF7A2FF84F8507000212046A164BDE8E4
:1038E000F0810020E7E72460EEE72DE9F041856BE9
:1038F000174604460026026C82B1C7B1E06803F0A7
:103900006CF9E168206C091AE1602268914202D2E8
:103910006168081AE060022F16D017E02068A8B985
:10392000606801F062FB0646002060600EE0A0685F
:1039300003F053F9216CA0680844A06061688842D4
:1039400004D32068A06001E005B16D1E6D1CA56365
:103950003046C4E72DE9F3410F4600980026846CF9
:103960002CB940F6CE12A2A1A6A003F039F8A06BA4
:10397000E16B884205D340F6CF129DA1A1A003F0D0
:103980002FF8A06BE16B88420CD294F945503A466F
:1039900069462046FFF7A9FF0646681C05D06D1C46
:1039A00084F845503046BDE8FC81606A0028F9D0B3
:1039B00004F1240001F008FA0028F3D00126F1E711
:1039C0002DE9F041044602F01FF994F9455004F145
:1039D000240610E0A06C20B100212046FFF7BAFFBA
:1039E00004E0606A48B1304601F0EEF908B101F038
:1039F000A4FA6D1E6DB2002DECDC4FF0FF3684F89A
:103A0000456002F01BF902F0FFF894F9445004F10C
:103A1000100709E0206948B1384601F0D5F908B12E
:103A200001F08BFA6D1E6DB2002DF3DC84F844605A
:103A3000BDE8F04102F002B92DE9FF4F83B099468D
:103A40008B4604004FF0000605D140F2D92268A150
:103A50006CA002F0C5FFBBF1000F07D1206C28B1AC
:103A600040F2DA2262A167A002F0BAFFB9F1020FB8
:103A700008D1E06B012805D040F2DB225CA161A0F7
:103A800002F0AEFF01F068FA38B9059828B140F2AB
:103A9000DE2257A15BA002F0A3FF4FF0000A4FF017
:103AA0008057DFF8708102F0AFF8A06BE16B8842BD
:103AB00006D3B9F1020F03D0059800B316B325E081
:103AC0004A4659462046FFF710FFA16C21B14946EE
:103AD0002046FFF73FFF05E0616A19B104F12400B9
:103AE00001F072F928B1C8F80070BFF34F8FBFF32F
:103AF0006F8F02F0A3F8012007B0BDE8F08F02F04D
:103B00009DF821E0684601F0CEF9012602F096F812
:103B100000F09BFD02F078F894F94400401C01D1BC
:103B200084F844A094F94500401C01D184F845A0D4
:103B300002F084F805A9684601F0C6F930B12046C4
:103B4000FFF73EFF00F0F3FC0020D5E702F05CF841
:103B5000A06BE16B884201D1012500E0002502F055
:103B60006DF895B104F11000059901F0D4F82046E4
:103B7000FFF726FF00F0DBFC002894D1C8F80070A6
:103B8000BFF34F8FBFF36F8F8DE72046FFF718FF0E
:103B900000F0CDFC87E710B5024600210120FFF7B9
:103BA0007BFE040007D00021416001600B460A46FD
:103BB000C160FFF741FF204610BD10B5040005D1DC
:103BC00040F241220AA10FA002F00AFF01F0C1F960
:103BD0006168884220D1E068401EE06005D1002382
:103BE0001A4619462046FFF727FF012010BD0000A6
:103BF0002E2E5C4672656552544F535C7175657527
:103C0000652E63004572726F723A25732C25640D20
:103C10000A00000004ED00E00020E7E730B4026C89
:103C20000B46002A0BD0C1681144C1604468A14210
:103C300001D30168C16030BC184602F0CEBF30BC71
:103C400070472DE9FF4F83B09B468A4604004FF032
:103C5000000607D140F2DC42AFF26C01AFF25C002B
:103C600002F0BEFEBAF1000F09D1206C38B140F26B
:103C7000DD42AFF28401AFF2740002F0B1FE01F058
:103C80006BF948B9059838B14FF49C62AFF2A001C6
:103C9000AFF2900002F0A4FE4FF000094FF0805701
:103CA000DFF8188601F0B0FFA56B35B3514620460A
:103CB000E668FFF7B3FFBBF1000F11D0E660606A62
:103CC00050B104F1240001F07FF828B1C8F8007069
:103CD000BFF34F8FBFF36F8F01F0B0FF01200BE7F1
:103CE0006D1EA563206810B901F02FFA606020698D
:103CF0000028F1D004F11000E5E7059808B11EB1E5
:103D000006E001F09BFF27E0684601F0CCF80126B1
:103D100001F094FF00F099FC01F076FF94F9440063
:103D2000401C01D184F8449094F94500401C01D115
:103D300084F8459001F082FF05A9684601F0C4F8B7
:103D4000002820460AD0FFF73BFE00F0F0FB20469B
:103D500000F0A6FA0028A5D00020CDE600F0A0FAD9
:103D6000D8B1206830B901F04FFF606801F0FFF86A
:103D700001F064FF04F12400059900F0CCFF204617
:103D8000FFF71EFE00F0D3FB00288BD1C8F80070AF
:103D9000BFF34F8FBFF36F8F84E72046FFF710FE0E
:103DA00000F0C5FB7EE770B50D46040007D14FF467
:103DB0001E72AFF2C411AFF2B41002F011FE01F0A6
:103DC000C8F86168884204D1E068401CE0600120C6
:103DD00070BD00232A4619462046FFF732FF00280F
:103DE000F6D0E168491CE16070BD70B50C46050075
:103DF00007D140F2BD22AFF20821AFF2F81002F075
:103E0000EFFDAC4207D940F2BE22AFF21C21AFF267
:103E10000C2002F0E5FD022200212846FFF73CFDC0
:103E2000002800D0846370BD2DE9F0479846154600
:103E30008946040007D140F29F32AFF24C21AFF225
:103E40003C2002F0CDFDB9F1000F09D1206C38B152
:103E50004FF46872AFF26821AFF2582002F0C0FD53
:103E6000B8F1020F0AD1E06B012807D040F2A1326D
:103E7000AFF28421AFF2742002F0B2FD01F003FF33
:103E80005020EFF3118780F31188BFF34F8FBFF3FA
:103E90006F8FA06BE16B884207D3B8F1020F04D09B
:103EA000002087F31188BDE8F08794F94560424609
:103EB00049462046FFF719FD701C04D0761C84F893
:103EC00045600120EDE7A06C012620B14146204667
:103ED000FFF740FD06E0606A0028F2D004F12400FC
:103EE00000F072FF0028ECD0002DEAD02E60E8E749
:103EF0002DE9F0410D46040007D140F23C42AFF2FB
:103F00001031AFF2003002F06BFD206C38B14FF48D
:103F10008862AFF22431AFF2143002F061FD206804
:103F200048B9606838B140F24542AFF23C31AFF277
:103F30002C3002F055FD01F0A6FE5020EFF3118663
:103F400080F31188BFF34F8FBFF36F8FA16BE06BCE
:103F500088421FD994F94500491CA163411C04D033
:103F6000401C84F84500012015E0A06C012720B119
:103F700000212046FFF7EEFC06E0606A0028F2D040
:103F800004F1240000F020FF0028ECD0002DEAD03E
:103F90002F60E8E7002086F31188A0E42DE9F047C0
:103FA00090468946040007D14FF4B462AFF2C031A5
:103FB000AFF2B03002F014FDB9F1000F09D1206C5E
:103FC00038B140F2A152AFF2D831AFF2C83002F0AE
:103FD00007FD01F058FE5020EFF3118780F31188A0
:103FE000BFF34F8FBFF36F8FA66BF6B194F94450B8
:103FF00049462046FFF712FE761EA663681C04D0D1
:104000006D1C84F84450012010E020690028FAD08B
:1040100004F1100000F0D8FE0028F4D0B8F1000F31
:10402000F1D00121C8F80010EDE7002087F31188D6
:1040300039E72DE9F0410E46040007D140F2FC5269
:10404000AFF25441AFF2444002F0CAFC4EB9206CCA
:1040500048B140F2FD52AFF26841AFF2584002F071
:10406000BFFC206C38B940F2FE52AFF27C41AFF297
:104070006C4002F0B5FC01F006FE5020EFF3118514
:1040800080F31188BFF34F8FBFF36F8FA06B30B1F8
:1040900031462046E768FFF7C1FD0120E76085F360
:1040A00011881CE410B5040007D140F22F62AFF272
:1040B000C041AFF2B04002F093FC01F0A5FDA46B4B
:1040C00001F0BCFD204691E510B5040007D140F297
:1040D0004162AFF2E441AFF2D44002F081FC01F062
:1040E00093FDD4E90E10441A01F0A8FD20467DE5A9
:1040F00010B5040007D140F25162AFF20C51AFF29B
:10410000FC4002F06DFCA06B70E56D4A002102EBF3
:10411000C1035B68834206D1002042F8310002EB04
:10412000C10148607047491C0829F0D3704710B599
:10413000040007D140F25D62AFF24C51AFF23C5047
:1041400002F04EFC2046FFF7E0FF2046BDE810409D
:1041500001F075BEC06C7047C164704790F85000A4
:10416000704710B5040007D140F29372AFF280514E
:10417000AFF2705002F034FCA06B08B1002035E5BE
:10418000012033E510B5040007D140F2BA72AFF256
:10419000A051AFF2905002F023FCA06BE16B88427B
:1041A00001D1012022E5002020E510B5444B00227A
:1041B00053F832401CB1521C082AF9D316E543F8D3
:1041C000321003EBC201486010E510B500243C4AF0
:1041D000214602EBC1035B68834202D152F83140B1
:1041E00002E0491C0829F4D32046FFE470B51546C7
:1041F0000E46044601F008FD94F944100020491CC5
:1042000001D184F8440094F94510491C01D184F887
:10421000450001F013FDA06B28B92A46314604F190
:10422000240000F0B6FD2046BDE87040FFF7C8BB93
:1042300000220421FFF730BB70B50D46044601F0A3
:10424000E3FCA06C08B9A06B08B1002401E0A564F0
:10425000012401F0F3FC204670BD10B50446806CCB
:10426000884201D1A06B08B10020BFE401F0CCFC72
:104270000020A06401F0E2FC0120B7E408B50023AF
:104280000A4669460093FFF7DCFC009808BD08B5B4
:1042900000210A4600916946FFF780FE009808BD9C
:1042A00010B5044601F0B0FCA06B20B1002401F071
:1042B000C5FC20469AE40124F9E7000004ED00E083
:1042C0008C0500202DE9F041054601F09DFCFE4ED5
:1042D000B068401CB0603068FC4F10B1706930B3FA
:1042E0002BE03560B068012827D1002404EB84005E
:1042F00007EB8000FFF74CFA641C202CF6D3F4483F
:10430000FFF746FAF2481430FFF742FAF048283037
:10431000FFF73EFAEE483C30FFF73AFAEC485030EF
:10432000FFF736FAEA4870631430B06305E030688E
:10433000E96AC06A884200D83560706A0121401C71
:1043400070626864E86A326981401143316100EB50
:10435000800007EB8000291DFFF728FA01F06EFCB2
:10436000706900280CD03068E96AC06A884207D2B8
:10437000D8494FF080500860BFF34F8FBFF36F8F65
:10438000BDE8F0812DE9FF5F8346DDE90E879946A0
:1043900016468A46900001F0E7FC05001AD05C2022
:1043A00001F0E2FC040012D025630021CDE90241B6
:1043B000CDE900874B4632465146584601F087F812
:1043C0002046FFF77FFF012004B0BDE8F09F28469C
:1043D00001F035FD4FF0FF30F6E770B5044601F00F
:1043E00013FCB94D04B92C68201DFFF703FA58B926
:1043F000E06AB64A00EB800152F8211021B9012190
:104400008140286988432861A06A18B104F1180026
:10441000FFF7F0F9686A401C68622868844208D196
:10442000AB48211D3C30FFF7C1F96868401C68604B
:1044300007E0A868401EA860204601F0A1F801F03E
:1044400092F801F0FBFB6869002812D028688442CA
:104450000FD1286B28B140F265429FA1A3A002F0C2
:10446000BFFA9C494FF080500860BFF34F8FBFF3F5
:104470006F8F70BD2DE9F041934F0026386B38B136
:10448000B869401CB861F86900B10126304677E789
:10449000FD686D1CFD6011D1786B006828B140F695
:1044A000DA128DA191A002F09BFA786BB96B796357
:1044B000B863386A401C386201F055F8B86ADFF812
:1044C0000C82854209D3786B006880B1786BC06834
:1044D000C468606885420DD2B8623868C06A00EB73
:1044E000800158F821000128CDD90126CBE74FF0F3
:1044F000FF30F1E7201DFFF77DF9A06A18B104F144
:104500001800FFF777F9E06A01213A698140114309
:10451000396100EB800108EB8100211DFFF746F9AE
:10452000E06A3968C96A8842CDD30126CBE72DE914
:10453000F047654D00242746286B28B940F2E97200
:1045400065A16AA002F04CFA01F05EFB286B401EE8
:104550002863286BF0BBA8685D4928310126C8B3E1
:10456000DFF868918846D8F80010E9B1D8F80C0057
:10457000C46804F11800FFF73DF9201DFFF73AF970
:10458000E06A2A6906FA00F11143296100EB800113
:1045900009EB8100211DFFF709F9E06A2968C96A62
:1045A0008842E0D3EE61DEE70CB100F0DCFFAC69DD
:1045B0003CB1FFF75FFF00B1EE61641EF9D100204E
:1045C000A861E86930B14349012738070860BFF3A3
:1045D0004F8F00E001E0BFF36F8F01F02FFB3846F3
:1045E000BDE8F0872DE9F041374E0F460446F568E7
:1045F0003068001DFFF7FEF838B9306890F82C10CD
:1046000001208840316981433161601C08D13FB18C
:104610003168BDE8F0412E485030091DFFF7C6B89B
:1046200030682C44AC424460316805D2B06BBDE8C0
:10463000F041091DFFF7C6B8706B091DFFF7C2F8FE
:10464000B06A844200D2B4629AE61F48016B491CEA
:10465000016370472DE9F0410E4605004FF000045C
:1046600005D140F279421CA120A002F0B9F92EB97F
:1046700040F27A4218A11DA002F0B2F9124F386B35
:1046800028B140F27B4214A118A002F0A9F9FFF76B
:10469000DCFFFA6828688119904202D9884202D862
:1046A00004E0884201D8914200D9012429601CB15C
:1046B000881A0021FFF796FFFFF739FF002822D163
:1046C0004FF08050034919E08C000020CC050020F9
:1046D0004C08002004ED00E02E2E5C467265655209
:1046E000544F535C7461736B732E63004572726F29
:1046F000723A25732C25640D0A0000000860BFF390
:104700004F8FBFF36F8F3BE610B5040014D0FE4906
:10471000096B39B140F2CF42AFF24401AFF234003D
:1047200002F05EF9FFF791FF00212046FFF75AFFE4
:10473000FFF7FDFE002807D1F4494FF080500860D4
:10474000BFF34F8FBFF36F8F10BD70B5050007D15A
:1047500040F2FB42AFF28001AFF2700002F040F98C
:10476000E94E3068854201D1002070BD01F04CFA5D
:104770006C6901F063FA706B844202D0B06B8442C2
:1047800001D1022070BDE248844204D1A86A002809
:10479000F7D1032070BDDE481438844202D00CB13A
:1047A000012070BD042070BD10B5044601F02CFA44
:1047B0000CB9D5480468E46A01F040FA204610BDFF
:1047C00010B5044601F05FFA5020EFF3118180F339
:1047D0001188BFF34F8FBFF36F8F0CB9CA480468BD
:1047E000E06A81F3118810BD2DE9F04100260D46E5
:1047F0000446202908D34FF4B062AFF22411AFF27F
:10480000141002F0EDF81F2501F0FEF9BE4F04B9B7
:104810003C68E06CA8423FD03968854206D98C429A
:1048200007D03968C96AA94202D902E08C4200D196
:104830000126E16A8846884200D1E562E564A06904
:10484000002802DBC5F12000A061B24D08EB880012
:10485000616905EB8000814215D1201DFEF7CAFF7A
:10486000012120B93A6901FA08F082433A61E06A0D
:104870003A6981401143396100EB800005EB80000B
:10488000211DFEF793FF3EB1A0494FF08050086014
:10489000BFF34F8FBFF36F8FBDE8F04101F0CEB98A
:1048A00070B5994D286B10B10120E86170BD0020F2
:1048B000E8612869974EB0FA80F0C0F11F0000EB64
:1048C000800456F8240038B940F6F722AFF2F81108
:1048D000AFF2E81002F084F806EB840000F1080261
:1048E000416849684160914201D149684160C868A6
:1048F000286070BD70B5044601F086F9824D04B998
:104900002C68201DFEF776FF58B9E06A814A00EB5B
:10491000800152F8211021B9012181402869884382
:104920002861A06A18B104F11800FEF763FF211D89
:104930007748FEF73BFF01F081F9686928B101F083
:1049400063F900F010FE01F079F92868844213D170
:10495000686990B1286B38B140F25762AFF2882194
:10496000AFF2782002F03CF868494FF080500860C0
:10497000BFF34F8FBFF36F8F70BD6548A9680068A4
:10498000884202D10020286070BDBDE8704087E7F2
:1049900070B50025040007D140F28162AFF2C82152
:1049A000AFF2B82002F01CF859496069884205D17D
:1049B000A06A2839884201D000B90125284670BD77
:1049C00070B504002BD0504D2868844231D001F0DE
:1049D0001BF92046FFF7DCFFE8B1201DFEF70AFFB8
:1049E000E06A01212A69814011432961494900EBAC
:1049F000800001EB8000211DFEF7D8FEE06A2968E7
:104A0000C96A884207D341494FF080500860BFF31C
:104A10004F8FBFF36F8FBDE8704001F00FB940F2C8
:104A2000AB62AFF24C31AFF23C30BDE8704001F008
:104A3000D7BF70BD2DE9F0410026040007D140F238
:104A4000E262AFF26C31AFF25C3001F0C9FF01F00D
:104A50001AF95020EFF3118580F31188BFF34F8FBF
:104A6000BFF36F8F2046FFF793FFF0B1264F386BEF
:104A700020B1274804F11801283814E0E06A3968A9
:104A8000C96A884200D30126201DFEF7B3FEE06A02
:104A900001213A698140114339611E4900EB8000D0
:104AA00001EB8000211DFEF781FE85F31188304661
:104AB00066E4184E4FF08054144D00F06BFD3068E2
:104AC0000128FAD92C60BFF34F8FBFF36F8FF4E743
:104AD0001CB50D4800242C30CDE90040234682222D
:104AE0000DA10F48FFF74EFC012803D100F06DFE29
:104AF00001281BD0401C2BD140F28472AFF2284118
:104B0000AFF2184002B00DE08C00002004ED00E090
:104B10009C080020CC05002049444C4500000000C2
:104B2000B34A0008BDE8104001F05ABF502080F39E
:104B30001188BFF34F8FBFF36F8FFA484FF0FF31EB
:104B4000816201214161C460BDE81C4001F01AB8D6
:104B50001CBD502080F31188BFF34F8FBFF36F8FC0
:104B6000F0490020486101F043B8EE48C068704742
:104B700010B501F088F8EB48C06810BDE9488068BE
:104B8000704710B510B104461CB10AE0E54804684E
:104B9000FAE740F68D02AFF2C041AFF2B04001F04B
:104BA0001FFF04F1340010BD2DE9F0471E46914669
:104BB0000C4607000ED0054605F13400C4E900504C
:104BC000E86A2061286BE061686CA060207B0328A4
:104BD00003D00AE0D3480568EEE7FFF736FDA86A80
:104BE00008B102202073FFF7A2FC4FF00008E86C28
:104BF000C4E90508052E01D0267303E03846FFF707
:104C0000A4FD2073B9F1000F0AD00021286B01E048
:104C1000401C491C0278A52AFAD088082084DFE4C9
:104C2000A4F82080DCE42DE9F0478146086892462C
:104C30000C460025F8B1486801F108064068486054
:104C4000B04201D140684860D0F80C80606842688A
:104C50006260B24201D151686160606805EBC501D4
:104C600009EB8101C768534601223846FFF79CFFD4
:104C70006D1C4745EAD12846B2E42DE9F0471746B6
:104C80000A46064600242025FFF7DFFCDFF8948261
:104C9000D8F8080082423AD3DFF88C926D1E05EBFB
:104CA000850104EBC40009EB810106EB80000122C1
:104CB000FFF7B9FF0444002DF0D104EBC40006EB6C
:104CC000800002224546D8F83410FFF7ACFF0444B8
:104CD00004EBC40006EB80000222A96BFFF7A3FFE0
:104CE000044404EBC40006EB800004228F49FFF764
:104CF0009AFF04448D4904EBC40006EB80000322B4
:104D00001431FFF790FF04440FB100203860FFF723
:104D10000EFC204664E470B50D46040007D140F651
:104D20000732AFF24C61AFF23C6001F059FE7D48B2
:104D3000016820461831FEF745FD2846BDE8704061
:104D400001214FE42DE9F04117460E46050007D139
:104D500040F61832AFF28061AFF2706001F040FEB1
:104D6000704C206B38B940F61C32AFF29461AFF250
:104D7000846001F035FE216846F0004088612168BA
:104D800028461831FEF712FD3846BDE8F0410121F2
:104D900028E470B514460E46050007D140F63232BD
:104DA000AFF2CC61AFF2BC6001F01AFE5D48016861
:104DB00028461831FEF7FAFC0CB14FF0FF362146B9
:104DC0003046BDE870400DE42DE9F041C068C4688C
:104DD0003CB940F66232AFF20071AFF2F06001F020
:104DE000FFFD04F118000746FEF704FD4D4D286B4A
:104DF000012660B14D4839461438FEF7D7FCE06A09
:104E00002968C96A884212D90120EE611CE4201D7C
:104E1000FEF7F0FCE06A2A6906FA00F11143296105
:104E2000414900EB800001EB8000211DE5E70020F7
:104E30000AE470B53B4D06460C46286B38B940F67F
:104E40009A32AFF26C71AFF25C7001F0C9FD44F0C0
:104E500000403060F4683CB940F6A232AFF288718D
:104E6000AFF2787001F0BCFD3046FEF7C3FC201DA8
:104E7000FEF7C0FCE06A01262A6906FA00F1114338
:104E80002961294900EB800001EB8000211DFEF71C
:104E90008DFCE06A2968C96A884202D90120EE6166
:104EA00070BD002070BD10B5040007D140F6C232BD
:104EB000AFF2DC71AFF2CC7001F092FD1948016ADB
:104EC0002160C068606010BD70B50D46040007D158
:104ED00040F6CC32AFF60001AFF2F07001F080FD89
:104EE0003DB940F6CD32AFF61001AFF6000001F04B
:104EF00077FD00F089FE0B4AD06829684B1C0FD063
:104F00002368126A934202D06268824210D96268B2
:104F1000801A88420CD2081A28602046FFF7C3FF87
:104F2000002406E08C000020CC050020880800202A
:104F3000012400F083FE204670BDFF490120C861B6
:104F40007047002800D0806C7047002800D0816432
:104F50007047F94800687047F748416919B1006B1C
:104F600018B100207047012070470220704770B5CB
:104F7000040039D0F04DE06A2968C96A884233D20A
:104F8000A069002804DB2868C06AC0F12000A06185
:104F9000E06AEA4E00EB8000616906EB8000814226
:104FA0001FD1201DFEF726FC012150B9E06A00EB5D
:104FB000800256F8222022B92A6901FA00F08243C1
:104FC0002A612868C06AE0622A6981401143296128
:104FD00000EB800006EB8000211DBDE87040FEF76D
:104FE000E5BB2868C06AE06270BD70B504004FF090
:104FF000000640D0D04D2868844207D040F6C862F1
:10500000AFF62C11AFF61C1001F0EAFC206D38B998
:1050100040F6CA62AFF64011AFF6301001F0E0FC86
:10502000206D401E2065E26CE16A914223D010BBE6
:10503000201DFEF7DFFBC149012250B9E06A00EBF9
:10504000800351F8233023B92B6902FA00F083431F
:105050002B61E06CE062C0F12000A061E06A2B6986
:1050600082401A432A6100EB800001EB8000211D81
:10507000FEF79CFB0126304670BD2DE9FF4100275D
:1050800005460770AC4881680291806800EBC0005B
:10509000800000F069FE06004BD000220299FFF765
:1050A000ECFDCDE9020738463AE000EBC00006EB24
:1050B0008001087B01280FD002280FD003280FD0D1
:1050C00004280FD000244968284601F043FD2846F3
:1050D00001F064FD202109E05224F4E74224F2E7C4
:1050E0005324F0E74424EEE72954401C0F28FBD357
:1050F0002F540544039800EBC00006EB8000826843
:10510000018CCDE90012036922468DA1284601F0E9
:1051100073FC284601F042FD05440398401C0390AF
:1051200002998842C1D304B03046BDE8F04100F096
:1051300086BEBDE8FF81804908680A688069D26A36
:105140000968C2F120028A6170477B49086818B17A
:105150000868026D521C02650868704770B50C46FD
:10516000064600F051FD744D2868406D80B92968ED
:10517000012081F858005CB101212046FFF732FA86
:1051800073494FF080500860BFF34F8FBFF36F8FAC
:1051900000F054FD00F038FD2868446D002034B163
:1051A00016B12968486502E02A68611E51652968C0
:1051B00081F8580000F042FD204670BD2DE9F04115
:1051C0001E4615468846074600F01EFD5A4C2068CC
:1051D00090F85800022814D02068416DB943416509
:1051E0002168012081F858005EB101213046FFF7A7
:1051F000F9F957494FF080500860BFF34F8FBFF364
:105200006F8F00F01BFD00F0FFFC15B12068406DB2
:105210002860206890F8580001280DD02068416D62
:1052200021EA0801416501252168002081F8580024
:1052300000F004FD28463BE40025F5E72DE9F041A8
:105240001F4690460D4604004FF0010607D141F27B
:10525000FE02AFF67C31AFF66C3001F0C1FB00F01E
:10526000D3FC0FB1606D386094F85800022184F8C7
:105270005810B8F1050F0ED2DFE808F00D03060C48
:105280000A00616D294301E0616D491C616502E01E
:10529000022803D06565012802D02AE0002628E014
:1052A000201DFEF7A7FA244DE06A01212A698140FA
:1052B00011432961214900EB800001EB8000211D91
:1052C000FEF774FAA06A38B141F23612AFF6F8313F
:1052D000AFF6E83001F084FBE06A2968C96A8842C9
:1052E00007D91B494FF080500860BFF34F8FBFF3C1
:1052F0006F8F00F0A3FC304688E52DE9F0471F468C
:10530000DDF8209092460D4604004FF0010807D1C9
:1053100041F26912AFF64041AFF6304001F060FB58
:1053200000F0B1FC5020EFF3118680F31188BFF339
:105330004F8FBFF36F8F0DE08C000020CC05002055
:105340000925630925750925750925750D0A0000CC
:1053500004ED00E00FB1606D386094F85800022150
:1053600084F85810BAF1050F0ED2DFE80AF00D03E9
:10537000060C0A00616D294301E0616D491C6165FD
:1053800002E0022803D06565012803D031E04FF028
:1053900000082EE0A06A38B141F2B012AFF6C84161
:1053A000AFF6B84001F01CFB8D4D286B012778B19A
:1053B00004F118018B48FEF7F9F9E06A2968C96A17
:1053C000884216D9B9F1000F12D0C9F8007010E068
:1053D000201DFEF70FFAE06A2A6907FA00F111436F
:1053E000296100EB8001804800EB8100211DE2E78C
:1053F000EF6186F31188404611E42DE9F0418846BB
:10540000040007D141F2E412AFF63451AFF6245054
:1054100001F0E6FA00F037FC5020EFF3118780F33B
:105420001188BFF34F8FBFF36F8F94F8580002219C
:1054300084F85810616D491C616501282ED1A06A5D
:1054400038B141F20A22AFF67051AFF6605001F068
:10545000C7FA634D286B012678B104F11801614841
:10546000FEF7A4F9E06A2968C96A884216D9B8F13A
:10547000000F12D0C8F8006010E0201DFEF7BAF946
:10548000E06A2A6906FA00F111432961564900EBE6
:10549000800001EB8000211DE2E7EE6187F31188B7
:1054A000B4E410B558B1044600F0AEFB94F85800CF
:1054B000022807D0002400F0C1FB204610BD484858
:1054C0000468F1E7002084F858000124F3E72DE98F
:1054D000F0470E46DDE90984174682469100994659
:1054E000089DA522206B01F0BDFB6FF00301206B2E
:1054F00001EB8701084420F00707780705D040F248
:105500002B323AA13EA001F06BFA00202218315C48
:1055100082F83410315C11B1401C1028F6D30026FB
:1055200084F84360202D00D31F25E562C4E913569B
:10553000201DFEF738F904F11800FEF734F9246154
:10554000C5F120006462A061666584F858604A462F
:105550005146384600F0F9FA2060B8F1000F01D04A
:10556000C8F8004048E71E48416B096829B1416B03
:10557000C968C9684968816270474FF0FF31FAE72E
:1055800010B50446006B00F05AFC2046BDE8104000
:1055900000F055BC70B5134E114D14361CE0FFF7EA
:1055A00054F8306820B10024FEF7C1FFA4B901E02F
:1055B0000124F9E700F028FBF068C468201DFEF71D
:1055C00019F9A868401EA8606868401E686000F06D
:1055D00035FB2046FFF7D4FF68680028DFD170BD97
:1055E0008C00002074080020CC0500202E2E5C4684
:1055F00072656552544F535C7461736B732E630014
:105600004572726F723A25732C25640D0A000000F2
:1056100070B500244160F74D0061914206D8D11A5F
:105620008269914206D2011D286907E09A4203D29D
:10563000994201D3012403E0011DE868FEF7C2F896
:10564000204670BD2DE9FF479946DDF830A0904611
:105650000D4606004FF0000705D14FF4D372E6A1C6
:10566000EBA001F0BDF9E34C206880B1CDE9005812
:105670000296062D11DAFFF76FFC02284FF00003A7
:1056800009D0002269462068FEF7D6F9074604B023
:105690003846BDE8F0875246F4E700234A4669469B
:1056A000FEF7C2FBF2E770B586B0D24E53E0019828
:1056B000002806DADDE90301029A904701980028E4
:1056C00049DB039C606910B1201DFEF793F805A823
:1056D00000F04DF9054601980A283CD2DFE800F0B9
:1056E0000505053B273805053B270298A1690346B8
:1056F00001442A462046FFF78BFF00282BD0616A21
:1057000020468847E069012825D1002000900298B2
:10571000A1690023421819462046FFF793FFD0B92C
:1057200040F22132B4A1BAA001F05AF913E0029874
:10573000A06128B94FF44E72AFA1B5A001F050F9A5
:10574000A0692B4641191A462046FFF761FF02E087
:10575000204600F074FB00231A4601A93068FEF7CA
:1057600070FA0028A3D106B070BDA24CE0680168B1
:1057700039B1002139B1002000F00BF9FFF793FF98
:10578000F4E70121F6E7C0680068F5E710B500F01E
:105790003BFA984C2068A0B9A148FDF7F9FFA04852
:1057A0001430FDF7F5FF9E48E060143020610022C0
:1057B00010210520FEF770F8206010B199A1FEF7C6
:1057C000F4FCBDE8104000F039BA1CB50024FFF726
:1057D000DDFF8848006868B186491F20091DCDE9B2
:1057E000000100234FF4827290A19248FEF7CAFD97
:1057F000040005D140F233127FA185A001F0F0F83A
:1058000020461CBD2DE9F0470746994616460D4631
:105810002C20DDF820A000F0A7FA040014D0B84630
:105820004F46D1462DB94FF4C67283A188A001F02E
:10583000D7F8FFF7ABFF04F11801C4F8008081E846
:10584000E002201DFDF7AFFF204622E710B5694CAE
:10585000606828B94FF4E87267A16DA001F0C0F844
:10586000606810BD10B5040005D140F2D91262A1E4
:1058700067A001F0B5F8A06910BD10B5040005D10E
:1058800040F2E3125CA162A001F0AAF8606810BDCA
:1058900010B5040005D140F2ED1257A15CA001F053
:1058A0009FF8206810BD10B5040005D140F2DA322F
:1058B00051A157A001F094F800F0A6F9606908B171
:1058C000012400E0002400F0B9F9204610BD10B515
:1058D000040005D140F2EF3247A14DA001F080F85D
:1058E00000F092F9246A00F0A9F9204610BD70B5C5
:1058F0000D46040005D140F2FF323FA144A001F063
:105900006FF800F081F92562BDE8704000F096B9AB
:105910007FB56FF0010401AE009486E807003548BA
:105920001D4600232A4669460068FEF77DFA04B04A
:1059300070BD2DE9FF412F4C07469846206815465B
:105940000E4628B940F22B422BA131A001F048F8B5
:105950004FF0FF30CDE90007CDE902650023424654
:1059600069462068FEF768F804B0BDE8F08170B5BC
:105970000546FFF7FAF81F4E0446B068844203D28A
:1059800000F070F8012000E0002028602046B4609C
:1059900070BDF8B50D460646FEF757FE6846FFF7A0
:1059A000E6FF0446009810B1FEF7C1FDF8BD1148AE
:1059B000ADB101690968D9B10025311B2A460068DB
:1059C000FEF714FCFEF7B3FD0028EFD124494FF099
:1059D00080500860BFF34F8FBFF36F8FF8BDA642B2
:1059E000EBD8FEF7A4FD2146304600F06EF8F8BD76
:1059F0000125E2E7C80000202E2E5C467265655244
:105A0000544F535C74696D6572732E63000000001F
:105A10004572726F723A25732C25640D0A000000DE
:105A2000B0080020546D725100000000546D7220C7
:105A3000537663006B5700082E2E5C4672656552E4
:105A4000544F535C74696D6572732E6300000000DF
:105A50004572726F723A25732C25640D0A0000009E
:105A600004ED00E0F8B52F4E27E0C068C468056873
:105A7000201DFDF7BFFE616A20468847E0690128C6
:105A80001BD1A0692844A84206D924616060211D69
:105A9000F068FDF797FE10E00020034601460090F5
:105AA0002A462046FFF7CEFD38B940F29232AFF2D7
:105AB0007801AFF2640000F093FFF06801680029FC
:105AC000D3D13169C6E90310F8BDF8B505461548CC
:105AD0000E46C068C068C468201DFDF78BFEE069F3
