:020000040800F2
:10000000B8640020310300081D280008E91D00081D
:1000100031240008750C0008654B00080000000042
:10002000000000000000000000000000790200084D
:10003000C113000800000000CD020008893B000841
:100040004B0300084B0300084B0300084B03000858
:100050004B0300084B0300084B0300084B03000848
:100060004B0300084B0300084B0300084B03000838
:100070004B0300084B0300084B0300084B03000828
:100080004B0300084B0300084B0300084B03000818
:10009000010E00084B0300084B0300084B03000847
:1000A0004B0300089D3F00084B030008693C000813
:1000B000A93F0008B93F0008CD3F00084B030008E6
:1000C0004B0300084B0300084B0300084B030008D8
:1000D0004B0300088D440008F1440008F546000871
:1000E0004B0300084B0300084B0300084B030008B8
:1000F0004B0300084B0300084B0300084B030008A8
:100100004B0300084B030008E13F00084B030008C5
:100110004B0300084B0300084B0300084B03000887
:100120004B0300084B0300084B0300084B03000877
:100130004B0300084B0300084B0300084B03000867
:100140004B0300084B0300084B0300084B03000857
:100150004B0300084B0300084B0300084B03000847
:100160004B0300084B0300084B0300084B03000837
:100170004B0300084B0300084B0300084B03000827
:100180004B0300084B03000800F002F800F064F88D
:100190000AA090E8000C82448344AAF10107DA45E2
:1001A00001D100F059F8AFF2090EBAE80F0013F0D0
:1001B000010F18BFFB1A43F001031847E4D80000F1
:1001C00004D900000A444FF0000C10F8013B13F072
:1001D000070408BF10F8014B1D1108BF10F8015BA0
:1001E000641E05D010F8016B641E01F8016BF9D193
:1001F00013F0080F1EBF10F8014BAD1C0C1B09D1EA
:100200006D1E58BF01F801CBFAD505E014F8016B5B
:1002100001F8016B6D1EF9D59142D6D370470000ED
:100220000023002400250026103A28BF78C1FBD8FF
:10023000520728BF30C148BF0B607047642900F0E7
:100240002781732900F00483002070471FB50BF04D
:100250005AFF1FBD10B510BD00F076FB1146FFF729
:10026000F5FF07F023FE00F094FB03B4FFF7F2FF65
:1002700003BC06F043FB00002A4B19680868B0E88D
:10028000F04F80F30988BFF36F8F4FF0000080F3C9
:10029000118870470000000006480068006880F37D
:1002A000088862B661B6BFF34F8FBFF36F8F00DF70
:1002B00000BF00BF08ED00E0DFF80C00016841F46A
:1002C00070010160704700BF88ED00E0EFF3098026
:1002D000BFF36F8F134B1A681EF0100F08BF20ED8D
:1002E000108A20E9F04F106008B44FF0500080F3FE
:1002F0001188BFF34F8FBFF36F8F0AF085FA4FF06D
:10030000000080F3118808BC19680868B0E8F04F55
:100310001EF0100F08BFB0EC108A80F30988BFF3FD
:100320006F8F704718020020EFF3058070470000C0
:100330000948804709480047FEE7FEE7FEE7FEE779
:10034000FEE7FEE7FEE7FEE7FEE7FEE704480549B5
:10035000054A064B70470000A93B000889010008C8
:10036000B85E0020B8640020B8600020B8600020AB
:10037000704710B54C1084EA530404D54042C1F1D3
:10038000000138BF491E1B4204D55242C3F100038D
:1003900038BF5B1E00F057F914F0804F04D0404284
:1003A000C1F1000138BF491E14F0004F04D0524281
:1003B000C3F1000338BF5B1E10BD00000FB4044939
:1003C00010B503AA029800F047FA10BC5DF814FBC0
:1003D000040200202DE9F0410E4604460020206270
:1003E0002046E168884730B3252805D0D4E90121AB
:1003F0009047206A401CF2E7E168204600278847C2
:10040000050018D0A5F14100192802D820354FF475
:1004100000673246294620462760FFF70FFF40B1AC
:10042000012804D0F61D26F007060836D8E7361D49
:10043000D6E72846DAE7206ABDE8F08170B50C46B9
:100440000546012A05D02878800600D5EA690023F0
:1004500002E0012305E05B1C934202D2E05C00282D
:10046000F9D1A869E618C01AA861286A1844286258
:100470002846AFF3008004E0D5E9012114F8010B10
:100480009047B442F8D32846AFF3008070BD000017
:100490002DE9F0410646002410687529314616A55D
:1004A00010D0AFF30080002802DA404213A507E025
:1004B00031688A0701D512A502E0490704D511A5C4
:1004C000012401E0AFF3008000210A2206F1240795
:1004D00009E0B0FBF2FCB0FBF2F302FB1C00303091
:1004E00078541846491C0028F3D123462A46304642
:1004F000BDE8F04100F029B9000000002D00000027
:100500002B0000002000000040EA010310B59B070B
:100510000FD1042A0DD310C808C9121F9C42F8D06D
:1005200020BA19BA884201D9012010BD4FF0FF301E
:1005300010BD1AB1D30703D0521C07E0002010BD34
:1005400010F8013B11F8014B1B1B07D110F8013BC0
:1005500011F8014B1B1B01D1921EF1D1184610BDA1
:10056000032A40F2308010F0030C00F0158011F8DF
:10057000013BBCF1020F624498BF11F801CB00F8B7
:10058000013B38BF11F8013BA2F1040298BF00F80B
:1005900001CB38BF00F8013B11F0030300F06E817E
:1005A000083AC0F0088051F8043B083A51F804CBEF
:1005B000A0E80810F5E7121D5CBF51F8043B40F8B5
:1005C000043BAFF30080D20724BF11F8013B11F8C0
:1005D00001CB48BF11F8012B24BF00F8013B00F804
:1005E00001CB48BF00F8012B704702F0FF0343EA3C
:1005F000032242EA024200F002B84FF0000204294E
:10060000C0F0128010F0030C00F06C81CCF1040CEF
:10061000BCF1020F18BF00F8012BA8BF20F8022B75
:10062000A1EB0C0100F05EB95FEAC17C24BF00F8C9
:10063000012B00F8012B48BF00F8012B70477047D1
:1006400070477047704753EA020C00F069802DE94B
:10065000F04B4FF00006002B1FBFB3FA83F503FAEF
:1006600005F424FA05F65E4012BF1643B2FA82F58D
:1006700002FA05F4C5F120051EBF22FA05FC44EA82
:100680000C04203556EA044C4FEA144418BF641C8D
:100690004FF000084FF00009904271EB030C39D382
:1006A000002919BFB1FA81F701FA07F6B0FA80F70D
:1006B00000FA07F6C7F120071EBF20FA07FC46EA3A
:1006C0000C062037B6FBF4FCA7EB0507103F07F03C
:1006D0001F0BCBF120060CFA0BFB2CFA06F644BFDD
:1006E000B3460026202FA4BF5E464FF0000B5BEA06
:1006F000060C08BF4FF0010B19EB0B09ABFB027C9A
:1007000048EB0608C01B06FB02CC0BFB03CC71EBCD
:100710000C01C1E70B46024641464846BDE8F08B56
:1007200013B54FF000004FF00001AFF30080BDE8BB
:100730001C40704710B500F0FBF8006810BD10B504
:10074000044600F0F5F8046010BD2DE9F0470D46B1
:1007500099469246044600F124080168880604D5AB
:10076000E06921F01001216000E00120A84201DDD4
:10077000471B00E00027A1697A1902EB0900081A5B
:10078000A0612078C00602D42046AFF30080002686
:1007900008E0D4E901211AF806009047206A401CBD
:1007A000761C20624E45F4DB2078C0060AD5204630
:1007B000AFF3008006E0D4E9012130209047206AA1
:1007C000401C2062381EA7F10107F4DC07E0D4E9E1
:1007D000012118F805009047206A401C2062281E5D
:1007E000A5F10105F3DC2046AFF300802078000678
:1007F00002D50220BDE8F0870120FBE701694A1C11
:1008000002610878704700B58FB0CDE90131002151
:10081000059105497944CDE9031011466846FFF773
:10082000D9FD0FB000BD0000E5FFFFFF10B5436923
:1008300013B1AFF3008001E0FFF700FE012010BD0F
:10084000127800F124010A7000224A700122EDE7BB
:1008500011684FF0FF32E9E7074B70B50D467B4456
:10086000FFF7D1FF0446284600F066F810B14FF0BC
:10087000FF3070BD204670BD976E000010B5203A65
:10088000C0F00B80B1E81850203AA0E81850B1E849
:100890001850A0E81850BFF4F5AF5FEA027C24BFFF
:1008A000B1E81850A0E8185044BF18C918C0BDE8F6
:1008B00010405FEA827C24BF51F8043B40F8043BBF
:1008C00008BF7047D20728BF31F8023B48BF11F874
:1008D000012B28BF20F8023B48BF00F8012B7047CE
:1008E0004FF0000200B5134694469646203922BFC9
:1008F000A0E80C50A0E80C50B1F12001BFF4F7AF14
:10090000090728BFA0E80C5048BF0CC05DF804EBF5
:10091000890028BF40F8042B08BF704748BF20F863
:10092000022B11F0804F18BF00F8012B7047000018
:1009300000487047585E0020007B00F08000704740
:1009400000487047585E00207546FFF7F9FFAE4635
:1009500005006946534620F00700854618B020B5CB
:10096000FFF7F4FCBDE820404FF000064FF0000711
:100970004FF000084FF0000B21F00701AC46ACE847
:10098000C009ACE8C009ACE8C009ACE8C0098D46B4
:10099000704710B50446AFF300802046BDE8104014
:1009A000FFF763BC0029816802D041F0010101E03A
:1009B00021F0010181607047084B10B5D3F8042382
:1009C00007490A40D0E900142143D0E9024004431A
:1009D00021431143C3F8041310BD0000002001405F
:1009E000E030FCFFC06C80B2704702460020126805
:1009F0000A4200D00120704730B542680F4B0C7995
:100A00001A400B6842EA04221343436082680C4B8D
:100A10004D791A40D1E9034323438C6844EA4504E5
:100A2000234313438360C26A097D22F47002491E86
:100A3000C9B242EA0151C16230BD0000FFFEFFFCB5
:100A4000FDF7FFC070B5072609290AD9C568A1F1CD
:100A50000A0404EB4404A640B543A3401D43C5600B
:100A600007E0056901EB4104A640B543A3401D43DF
:100A700005611F23072A09D2446B521E02EB820232
:100A800093409C4391400C43446370BD0D2A09D2AE
:100A9000046BD21F02EB820293409C4391400C43B3
:100AA000046370BDC46A0D3A02EB820293409C431A
:100AB00091400C43C46270BD816841F08041816007
:100AC000704700002DE9F043DFF89C90032187B0C8
:100AD000D9F80C004000A0F6AC0090FBF1F5642DB5
:100AE00000DD64252148DFF88C8000240768204859
:100AF000066898F8000001280FD11F480594029459
:100B000003940494009401940023B0F900101A4651
:100B10001AA0FFF753FC88F8004099F80000C84677
:100B20000094C8B11D48002390ED000ABDEEC00A34
:100B300010EE102A90ED010A19A0BDEEC00A10EEC9
:100B4000101AFFF73BFC98F8000050B1002088F81D
:100B5000000007B0BDE8F083EBB2F2B2F9B214A026
:100B6000EFE70120F3E700006400002038000020D8
:100B70003C000020230000207E0000207B432564F1
:100B80003A25643A25643A25643A25643A25643A5C
:100B900025643A25643A25647D2400009C020020E7
:100BA0007B4225643A25643A25643A25647D240015
:100BB0007B4125643A25643A25643A25647D240006
:100BC00030B501218DB0084602F064FC01210D0210
:100BD000284602F077FC032020218DF82C000A9192
:100BE00000248DF82F400AA9134801F00FF80121C5
:100BF000284602F073FC0021284602F06FFC0694A0
:100C000028020994CDE9070406A8FFF7D5FE8DF860
:100C1000044000948DF80540029404940120074C90
:100C20008DF8140069462046FFF7E6FE01212046B4
:100C3000FFF7B8FE0DB030BD0000024000200140BB
:100C40001CB50121084602F025FC4FF480500090AD
:100C500001208DF8040000218DF8061003218DF885
:100C600005108DF807006946014800F0CFFF1CBD54
:100C700000000240FEE700002DE9FE4F0024E8B32B
:100C8000E1B3DAB3D3B3401E491EC7B201F0FF0986
:100C9000521E5B1ED6B29DB20121022002F0FAFB69
:100CA0000121480602F002FC4FF44070009002203F
:100CB0008DF804004FF000088DF8068003208DF8B1
:100CC0000500DFF830B14FF0010A8DF807A0694642
:100CD000584600F09BFF09220821584600F0D2FF39
:100CE00009221146584600F0CDFF4348C0F8008065
:100CF000016841F001010160021D09E0FFE70120E8
:100D0000BDE8FE8F641CA4B2642C01D90220F7E771
:100D10001168C907F6D001680160016801600168C7
:100D20000160016841F01001016001680160016823
:100D3000016031491C31C1F80080D1F800C00C9B22
:100D40004CEA83730B600B6843EA07630B600F6820
:100D500047EA09530B600B6843EA06430B600B68D4
:100D60002B430B60016821F0010101604FF6F07127
:100D700005E0641CA4B28C4201D90320C0E71368CB
:100D8000DB07F6D11D490A6842F001020A601B4ADE
:100D90001C32136823F001031360184B0C331C68DA
:100DA00044F001041C600B1D1C681C60134B1433C1
:100DB0001C681C60114B4033C3F800801B1DC3F836
:100DC0000080136843F0010313600A68C1F80080D3
:100DD0000122022100F050F914208DF808008DF84E
:100DE00009A08DF80A808DF80BA002A801F018FD6B
:100DF000002085E7000402400064004000660040D7
:100E000010B588B003AC07A8CDE9000406AB05AA6D
:100E100002A9002000F022F802980F49A0F5007204
:100E2000013A04D0A0F50072023A08D010E0002088
:100E3000225C0A54401CC0B20828F9D308E00820FC
:100E4000221812F8082C0A54401CC0B21028F7D3FC
:100E500000F01AF908B010BDF0090020F0B5224CDE
:100E6000DDE9057504EB0014D4F8B06516F004064E
:100E70001670D4F8B02532D0D2080A60D4F8B01574
:100E800001F002011970D4F8B41501F00F013970A6
:100E9000D4F8B8152970D4F8B815090A6970D4F8CF
:100EA000B815090CA970D4F8B815090EE970D4F872
:100EB000BC152971D4F8BC15090A6971D4F8BC15A0
:100EC000090CA971D4F8BC15090EE97148B10128C3
:100ED00004D10648016841F020010160F0BD520DC7
:100EE000CBE70248001FF5E70060004010640040B7
:100EF0003CB50E4C00206D46215C2954401CC0B20C
:100F00000828F9D3294640F2011000F011F800201A
:100F10002118097A2954401CC0B20828F8D3694620
:100F20004FF4817000F004F83CBD0000E00900209F
:100F300038B50024009108232246214600F014F819
:100F4000054640F6FF7301E0641CA4B2284600F099
:100F500061F8072801D09C42F6D39C4201D30120BE
:100F600038BD002038BD0000F0B506462748059D75
:100F70000468640101D5002008E00468240101D55B
:100F8000012003E00068C0003CD50220204C00276F
:100F900004EB0014C4F8807599B3F600D4F880759A
:100FA0003743C4F88075D4F8806546EA8101C4F8F7
:100FB0008015D4F8801541EA4201C4F88015D4F8B0
:100FC000842503F00F0122F00F02C4F88425D4F821
:100FD00084250A43C4F884252979D5F8052041EAF7
:100FE0000221C4F88C152978D5F8012041EA0221A4
:100FF000C4F88815D4F8801541F00101C4F88015B3
:10100000F0BD01E0FF20FBE77605C7E7086400407C
:1010100000600040174928B1012810D002281BD0D9
:101020000520704708680A6800F0010002F002021B
:101030000243086800F0806042EA10607047086868
:101040000A6800F0010002F002020243086800F0A2
:10105000006042EA5060704708680A6800F00100CA
:1010600002F002020243086800F0805042EA9060F9
:101070007047000008640040002A426901D00A431A
:1010800000E08A43426170471448027841781202B6
:1010900001FA82F212490A808378C2781B0202FAAE
:1010A00083F24A80037942791B0202FA83F28A8032
:1010B000027A417A120201FA82F20949891D0A80F4
:1010C000837AC27A1B0202FA83F24A80427B007B57
:1010D000000202FA80F0888070470000F0090020CA
:1010E00094010020174A184811890B0A03704170B7
:1010F00051890B0A8370C17091890B0A0371417188
:10110000D1890A0A8271C171104909880A0A0272DA
:1011100041720F490F4A09781278C90041EA8201E9
:101120000D4A127841EA42010C4A12781143817249
:101130000B490978C1720021017341738173C17336
:1011400070470000FC020020E00900207E00002023
:10115000190000201A0000201C0000201B000020A5
:101160001800002030B503460020012908D10022D4
:10117000094C03E0A55C6840521CD2B29A42F9D3F4
:10118000002908D1044A183203E0545C6040491C2D
:10119000C9B29942F9D330BDB409002038B5002056
:1011A00000906B4601227521682006F091FD31A068
:1011B000FFF704F99DF8000068280BD0BFF34F8FAC
:1011C00035480168354A01F4E06111430160BFF31D
:1011D0004F8FFEE706F05CFF002849D1782007F02A
:1011E00013FC10B923A0FFF7E9F8782006F07AFE87
:1011F00010B92BA0FFF7E2F8C82007F0C9FB10B91F
:1012000031A0FFF7DBF805F0EFFE10B938A0FFF7CB
:10121000D5F84448044606F0BCFD0546E01C06F03F
:10122000B8FD45EAC005A01D06F0B3FD45EA8010F3
:1012300080B206F08DF810B93BA0FFF7BFF840F27E
:10124000731005F0A9FD10B941A0FFF7B7F8C82049
:1012500005F0E6FF10B948A0FFF7B0F808F066FB0C
:10126000012007F0BBFA002802D14CA0FFF7A6F836
:1012700038BD00006D70755F7365745F73656E7364
:101280006F7220636F6D706C657465202E2E2E2E2C
:101290002E2E0D0A000000000CED00E00400FA05FF
:1012A0006D70755F636F6E6669677572655F66699D
:1012B000666F20636F6D706C657465202E2E2E2E08
:1012C0002E2E0D0A000000006D70755F7365745F4F
:1012D00073616D706C655F7261746520636F6D70B2
:1012E0006C657465202E2E2E2E2E2E0D0A00000009
:1012F000646D705F6C6F61645F6D6F74696F6E5F5A
:101300006472697665725F6669726D776172652075
:10131000636F6D706C657465202E2E2E2E2E2E0D33
:101320000A000000F8000020646D705F7365745F50
:101330006F7269656E746174696F6E20636F6D7032
:101340006C657465202E2E2E2E2E2E0D0A000000A8
:10135000646D705F656E61626C655F666561747512
:10136000726520636F6D706C657465202E2E2E2E55
:101370002E2E0D0A00000000646D705F7365745FAF
:101380006669666F5F7261746520636F6D706C650E
:101390007465202E2E2E2E2E2E0D0A006D70755F78
:1013A0007365745F646D705F737461746520636FDF
:1013B0006D706C657465202E2E2E2E2E2E0D0A005B
:1013C00070470000F0B5012189B0084602F06EF8C0
:1013D0000121084602F05EF80121022002F05AF8CD
:1013E00002258DF8045001244FF400408DF806408A
:1013F00003262B4F00908DF805608DF80740694655
:10140000384600F003FC8DF804508DF806408DF846
:1014100005608DF807400820224C00906946204660
:1014200000F0F4FB01220F21384600F02BFC0122D2
:101430000321204600F026FC02A803F01DF800243A
:101440004FF6FF70ADF8084003906D07ADF81040FF
:10145000ADF80A4002A9284602F0D0FF00231A4640
:101460000321284602F0EBFD05A802F06BFEADF863
:101470001C4005A9284602F00FFE0121284602F073
:10148000C3FD01221146284602F064FE00212846D1
:1014900002F08AFF0121284602F0BCFD09B0F0BD30
:1014A000000002400004024030B589B00121022052
:1014B00001F0FCFF0121084601F0ECFFC020039081
:1014C00002208DF8100001208DF8120003218DF804
:1014D0001110224C8DF8130003A9204600F096FB52
:1014E00002220621204600F0CDFB022207212046E1
:1014F00000F0C8FB684602F0BFFF00244FF6FF7003
:10150000174DADF800400190ADF80840ADF802402D
:101510006946284602F072FF00231A460321284636
:1015200002F08DFD05A802F00DFEADF81C4005A9E6
:10153000284602F0B1FD0121284602F065FD012296
:101540001146284602F006FE0021284602F02CFF34
:101550000121284602F05EFD09B030BD00000240C6
:101560000004004030B589B00121042001F09EFF45
:101570000121022001F08EFFC020039002208DF88F
:10158000100001208DF8120003218DF81110224C5B
:101590008DF8130003A9204600F038FB0222062133
:1015A000204600F06FFB02220721204600F06AFB74
:1015B000684602F061FF00244FF6FF70174DADF84A
:1015C00000400190ADF80840ADF802406946284659
:1015D00002F014FF00231A460321284602F02FFDD3
:1015E00005A802F0AFFDADF81C4005A9284602F0A1
:1015F00053FD0121284602F007FD0122114628462D
:1016000002F0A8FD0021284602F0CEFE0121284666
:1016100002F000FD09B030BD0004024000080040A7
:1016200030B589B00121082001F040FF01210846B2
:1016300001F030FF02208DF81000032101208DF809
:1016400012008DF81110234C03918DF8130003A99B
:10165000204600F0DBFA02220021204600F012FBB7
:1016600002220121204600F00DFB684602F004FF33
:1016700000244FF6FF70184DADF800400190ADF812
:101680000840ADF802406946284602F0B7FE002344
:101690001A460321284602F0D2FC05A802F052FDAA
:1016A000ADF81C4005A9284602F0F6FC01212846A9
:1016B00002F0AAFC01221146284602F04BFD00214F
:1016C000284602F071FE0121284602F0A3FC09B071
:1016D00030BD000000000240000C004070B5494CD5
:1016E0002DED0A8BF0EE608AB0EE408A9FED469BAE
:1016F0009FED47AB9FED48BB0AF037F90E4646EC2D
:10170000110B054653EC192B51EC110B0AF094F90F
:1017100053EC1A2B0AF090F953EC1B2B09F09EFFA7
:1017200009F0AEFE46EC115B0CEE100A53EC1A2BDE
:1017300051EC110B0AF080F953EC1B2B0AF07AFAEA
:101740002BD218EE100A0AF06DFC46EC105B41EC4F
:10175000190B53EC1A2B51EC100B0AF06DF99FED9D
:10176000301B53EC112B0AF073FB41EC1A0BB1EE5A
:10177000480A10EE100A0AF055FC53EC1B2B09F036
:101780006DFF53EC1A2B0AF057F953EC192B09F0A3
:10179000A9FE09F075FE20602EE0B6EE000A28EEE4
:1017A000000A10EE100A0AF03DFC41EC1A0BB0EEF4
:1017B0004C0A04F025FE3CEE400A20EE080A10EE2A
:1017C000100A0AF02FFC53EC192B09F047FF53ECD9
:1017D0001A2B0AF03DFB09F053FEB0EE4C0A2060D4
:1017E00003F03EFFF7EE000A30EEC00AFEEE000AFC
:1017F00020EE280A40EE208AC4ED018ABDEC0A8B57
:1018000070BD0000DC0200206E861BF0F92119403B
:10181000FCA9F1D24D62503F333333333333D33FDE
:10182000333333333333C33F70B5494C2DED0A8B1B
:10183000F0EE608AB0EE408A9FED469B9FED47AB8D
:101840009FED48BB0AF091F80E4646EC110B054699
:1018500053EC192B51EC110B0AF0EEF853EC1A2B48
:101860000AF0EAF853EC1B2B09F0F8FE09F008FE29
:1018700046EC115B0CEE100A53EC1A2B51EC110BD9
:101880000AF0DAF853EC1B2B0AF0D4F939D218EE2F
:10189000100A0AF0C7FBB6EE000A41EC1B0B28EE5B
:1018A000000A10EE100A0AF0BDFB41EC1A0BB0EE74
:1018B0004C0A04F0A5FD3CEE400A20EE080A10EEAA
:1018C000100A0AF0AFFB53EC192B09F0C7FE53ECDA
:1018D0001A2B0AF0BDFA53EC1B2B0AF0B9FA09F0E7
:1018E000CFFDB0EE4C0AA06003F0BAFEF7EE000A9E
:1018F00030EEC00AFEEE000A20EE280A40EE208AF2
:1019000020E046EC105B53EC1A2B51EC100B0AF064
:1019100093F89FED161B53EC112B0AF099FA41EC4A
:10192000190BB1EE480A10EE100A0AF07BFB53ECDB
:101930001B2B09F093FE53EC192B0AF07DF809F0EC
:101940009FFDA060C4ED038ABDEC0A8B70BD000052
:10195000DC0200206E861BF0F9211940FCA9F1D2AF
:101960004D62503F333333333333D33F3333333329
:101970003333C33F70B5494C2DED0A8BF0EE608ACE
:10198000B0EE408A9FED469B9FED47AB9FED48BB75
:1019900009F0EBFF0E4646EC110B054653EC192BF4
:1019A00051EC110B0AF048F853EC1A2B0AF044F8EA
:1019B00053EC1B2B09F052FE09F062FD46EC115B63
:1019C0000CEE100A53EC1A2B51EC110B0AF034F800
:1019D00053EC1B2B0AF02EF92BD218EE100A0AF04A
:1019E00021FB46EC105B41EC190B53EC1A2B51EC2C
:1019F000100B0AF021F89FED301B53EC112B0AF06D
:101A000027FA41EC1A0BB1EE480A10EE100A0AF060
:101A100009FB53EC1B2B09F021FE53EC1A2B0AF0A7
:101A20000BF853EC192B09F05DFD09F029FD20613D
:101A30002EE0B6EE000A28EE000A10EE100A0AF0B8
:101A4000F1FA41EC1A0BB0EE4C0A04F0D9FC3CEE72
:101A5000400A20EE080A10EE100A0AF0E3FA53ECEE
:101A6000192B09F0FBFD53EC1A2B0AF0F1F909F0E0
:101A700007FDB0EE4C0A206103F0F2FDF7EE000A1C
:101A800030EEC00AFEEE000A20EE280A40EE208A60
:101A9000C4ED058ABDEC0A8B70BD0000DC0200209D
:101AA0006E861BF0F9211940FCA9F1D24D62503F1E
:101AB000333333333333D33F333333333333C33FAE
:101AC00070B5494C2DED0A8BF0EE608AB0EE408A7D
:101AD0009FED469B9FED47AB9FED48BB09F045FF4F
:101AE0000E4646EC110B054653EC192B51EC110B2D
:101AF00009F0A2FF53EC1A2B09F09EFF53EC1B2BAD
:101B000009F0ACFD09F0BCFC46EC115B0CEE100AD0
:101B100053EC1A2B51EC110B09F08EFF53EC1B2BDD
:101B20000AF088F839D218EE100A0AF07BFAB6EEFD
:101B3000000A41EC1B0B28EE000A10EE100A0AF016
:101B400071FA41EC1A0BB0EE4C0A04F059FC3CEE71
:101B5000400A20EE080A10EE100A0AF063FA53EC6D
:101B6000192B09F07BFD53EC1A2B0AF071F953EC99
:101B70001B2B0AF06DF909F083FCB0EE4C0AA06152
:101B800003F06EFDF7EE000A30EEC00AFEEE000A2A
:101B900020EE280A40EE208A20E046EC105B53EC51
:101BA0001A2B51EC100B09F047FF9FED161B53EC5D
:101BB000112B0AF04DF941EC190BB1EE480A10EE69
:101BC000100A0AF02FFA53EC1B2B09F047FD53ECD7
:101BD000192B09F031FF09F053FCA061C4ED078A0D
:101BE000BDEC0A8B70BD0000DC0200206E861BF08D
:101BF000F9211940FCA9F1D24D62503F3333333300
:101C00003333D33F333333333333C33FF0B5002261
:101C100001274FF0030C0B6807FA02F52B40AB428B
:101C20002CD1066853000CFA03F4A64306600E7923
:101C3000D0F800E09E4046EA0E0606600E79012EBE
:101C400001D0022E12D18668A64386604E79D0F864
:101C500008E09E4046EA0E0686604668AE4346604F
:101C600045688E799640B6B235434560C568A54350
:101C7000C560CC799C40C3681C43C460521C102AC8
:101C8000C9D3F0BD4B07DB0E9A40C90810B500EB75
:101C90008100016A0F249C40A1430162016A114343
:101CA000016210BD10B50A4C0146072301222046EF
:101CB000FEF7C8FE2046FEF7FFFE02212046FEF793
:101CC00094FE0028F9D02046BDE81040FEF78ABEF9
:101CD000002001402DE9F0412648007802F0C0FEC6
:101CE000254823235C4206781121002223486FF007
:101CF0001005092E21D2DFE806F02005070B0E1192
:101D000016191D002D210BE0C0E90A35BDE8F08150
:101D10006FF015010BE0C0E90A45F7E76FF02C0101
:101D2000C0E90A12F2E7C0E90A41EFE71621C0E96B
:101D30000A21EBE7C0E90A31E8E711498262C26291
:101D40000978012908D0032909D0052909D00729D4
:101D50000BD002634263D9E76FF0310102E0242126
:101D600005E03221C0E90C12D0E76FF02301C0E991
:101D70000C21CBE727000020220000207800002063
:101D80002400002010B50520FFF78CFF09F004FEA9
:101D90009FED0D1B53EC112B09F04EFE9FED0C1B1C
:101DA00053EC112B09F048FE9FED0B1B53EC112B4C
:101DB00009F042FE9FED0A1B53EC112B09F03CFE8B
:101DC000BDE8104009F0A2BD6666666666660A4018
:101DD0000000000000002640000000000000594004
:101DE000000000000000303FFEE770B50D460446DD
:101DF00000F0E0F8204600F0ADF800F023F92846A6
:101E000000F0A8F800F01EF900F0D4F8641CE0B26D
:101E100000F0A0F800F016F9002000F067F8044682
:101E200000F0F0F8204670BD70B50D4C0025C4F8E8
:101E3000A8520C48016821F440010160016841F496
:101E400080010160C4F8AC52012004F52A7404F04A
:101E50006BFF0120206004F067FF256070BD00006B
:101E600000804042000402401CB50121022001F024
:101E700011FB4FF44060009001208DF80400002118
:101E80008DF8061003218DF805108DF807006946BE
:101E90000548FFF7BBFE04484FF480611A3001800B
:101EA000C11401801CBD00000004024070B50D4C3F
:101EB0000026C4F8A8620C48016821F440010160C2
:101EC000016841F4800101600125C4F8AC52284644
:101ED00004F52A7404F028FF2560012004F024FF93
:101EE000266070BD00804042000402402DE9F047AA
:101EF000814616480024016821F440010160016810
:101F00000160134E254627464FF00108C6F8A87217
:101F1000022004F009FFC6F8A8826006040ED6F875
:101F20002C0208B1641CE4B2022004F0FDFE6D1C1A
:101F3000EDB2082DEAD3B9F1000F02D0FFF774FF1C
:101F400001E0FFF7B3FF2046BDE8F0870004024040
:101F5000008040422DE9F04105461448016821F413
:101F600040010160016841F480010160104E0027CA
:101F7000C6F8A8723C464FF00108E809C6F8AC0262
:101F80006806050E012004F0CFFEC6F8A8820120E5
:101F900004F0CAFEC6F8A872012004F0C5FE641C55
:101FA000E4B2082CE9D3BDE8F0810000000402404F
:101FB0000080404270B51148016821F44001016081
:101FC000016841F4800101600D4C0120C4F8AC02AD
:101FD000D4F82C1249B1C4F8A80204F0A5FE0025DB
:101FE000C4F8AC52D4F82C0208B1002070BD012016
:101FF00004F09AFEC4F8A852012070BD000402400B
:10200000008040420D4810B5016821F44001016094
:10201000016841F480010160094C0020C4F8A80265
:10202000C4F8AC02012004F52A7404F07DFE0120FE
:1020300020606060BDE8104004F076BE00040240FD
:102040000080404270B512480024016821F440012C
:102050000160016801600F4D0126C5F8AC62304691
:1020600004F062FEC5F8A86207E0641CE4B2322CFA
:1020700003D9FFF7C7FF002070BD012004F054FE14
:10208000D5F82C020028F0D1C5F8A802012070BDB7
:10209000000402400080404210B51446FFF7A5FE40
:1020A0002070012010BDF8B515461C460E460746A7
:1020B0006A46FFF7F1FF01209DF80010A8400CB11F
:1020C000014300E08143CAB28DF800203146384612
:1020D00000F02BF8F8BD2DE9F84314461E460D46D6
:1020E00080466A46089FFFF7D7FF00281BD0621C76
:1020F000FF2000FA02F1C4F108023244521ED0401F
:102100000143C6F108008740FAB2C4F10700C2409B
:102110009DF80000084010438DF80000C2B2294627
:10212000404600F002F8BDE8F88307B502AB012293
:1021300000F001F80EBD2DE9F0411D461646884617
:1021400007460024FFF736FF3846FFF703FFFFF787
:1021500079FF4046FFF7FEFEFFF774FF06E0285DBB
:10216000FFF7F8FEFFF76EFF641CE4B2B442F6D34B
:10217000FFF748FF0120BDE8F081000010B52DED0C
:10218000048BB0EE409AB0EE608A29EE090A08EEA0
:10219000080A04F0FDF9F1EE480AF0EE408A80EEFC
:1021A000890A03F0ADF9B0EE408ADFED119AB5EE81
:1021B000C08AF1EE10FA01D238EE298A9FED0D0A9D
:1021C000DFED0D0A9FED0D9A08EEA80A28EE891A98
:1021D00070EE600A80EE810A02F0F0FC38EE400AF0
:1021E00060EE090A80EEA90ABDEC048B10BD000068
:1021F000C3F548400020FD450008CD4600003443AB
:1022000010B52DED048BB0EE409AB0EE608A29EE49
:10221000090A08EE080A04F0BBF9F1EE480AF0EEEC
:10222000408A80EE890A03F06BF9B0EE408ADFED58
:10223000119AB5EEC08AF1EE10FA01D238EE298A71
:102240009FED0D0ADFED0D0A9FED0D9A08EEA80A2D
:1022500028EE891A70EE600A80EE810A02F0AEFC68
:1022600030EE080A60EE090A80EEA90ABDEC048B84
:1022700010BD0000C3F548400020FD450008CD46D4
:10228000000034431CB50121022001F003F94FF492
:102290008040009000208DF8040003208DF8050098
:1022A00001208DF8070069460148FFF7AFFC1CBD0F
:1022B000000402401CB50121022001F0EBF84FF4AC
:1022C0000050009001208DF8040000208DF80600D9
:1022D00002208DF8050069460148FFF797FC1CBDF8
:1022E00000040240054906484A42C0E90012C0E91C
:1022F0000212C0E90412C0E90612704738CDFFFF90
:10230000BC0200200C4A0023508918B90B49D1F8AF
:10231000381209B1138109E01189491C89B2118170
:10232000962903D90120508113817047012800D1DB
:102330005381002070470000BC0000200080404214
:1023400010B5022000F011F8032000F020F8002062
:1023500000F014F8002000F02FF8002000F026F81C
:10236000BDE81040002000F01BB808B50323009022
:1023700002226B21D020FFF7AEFE08BD08B5022374
:10238000009004221C21D020FFF7A5FE08BD08B54F
:102390000223009004221B21D020FFF79CFE08BDE1
:1023A000034601223721D020FFF77DBE03460522D8
:1023B0006A21D020FFF777BE034606226B21D0208A
:1023C000FFF771BE08B505F0A3F9154D154CDFF800
:1023D0005880DFF858A040F6B83601274FF00209C0
:1023E00000900521684608F03DF801F0D9F894ED19
:1023F000060A85ED010A94ED070A85ED000A606979
:10240000B04203DA00F101006061EAE7E9D188F83F
:102410000070CAF8009005F06DFB6069F2E70000FB
:102420009C020020C80000201E0000209001002017
:10243000FEE700007CB501210E2001F02BF80125FC
:102440008DF80450002433208DF8064003260090B8
:102450008DF805608DF8075069461A48FFF7D6FBDE
:102460008DF8045041F230008DF8064000908DF850
:1024700005608DF8075069461348FFF7C7FB8DF8D4
:10248000045004208DF8064000908DF805608DF80A
:10249000075069460D48FFF7B9FB0D48C0F8904258
:1024A000C0F894420B49C1F88842C0F8B0420A48CB
:1024B000C0F88042C0F88442C0F89042C0F894420C
:1024C0007CBD00000004024000080240000C0240F5
:1024D0000000414200804142008040422DE9F0412D
:1024E000884607468AB00121022000F0EBFF012157
:1024F000042000F0CFFF354E032206213046FFF7BF
:10250000C1FB032207213046FFF7BCFB0322082151
:102510003046FFF7B7FB032209213046FFF7B2FB35
:102520004FF47070059002208DF8180000248DF88B
:102530001A4003208DF8190001258DF81B5005A9BC
:102540003046FFF763FB224EADF81C800897ADF8CC
:102550002440ADF81E4007A9304601F04FFF60202F
:10256000ADF80000ADF80250ADF80C4069463046B9
:1025700001F0F8FD6946304601F030FE694630460C
:1025800001F080FE6946304601F0CAFE0121304666
:1025900001F04AFD0821304601F01AFE08213046BC
:1025A00001F066FE0821304601F0B4FE08213046F5
:1025B00001F0F0FE0121304601F01CFD0121304602
:1025C00001F028FD0AB0BDE8F081000000080240DB
:1025D0000004014070B58B488B494FF0000304782C
:1025E000A0077AD5894AB1EE000A41F29A0510781F
:1025F000012861D15069401C00EE900A5061A84248
:10260000B8EE601AF9EE000A21EE201ABDEEC11AEA
:1026100011EE106A01EE100A0E80B8EE411A21EE9A
:10262000001ABDEEC11A11EE106A01EE100A4E80BA
:10263000B8EE411A21EE201ABDEEC11A11EE106A51
:1026400001EE100A8E80B8EE411A21EE001ABDEE9E
:10265000C11A11EE106A01EE100ACE80B8EE411ACE
:1026600021EE201ABDEEC11A11EE106A01EE100A19
:102670000E81B8EE411A21EE001ABDEEC11A11EE1C
:10268000106A01EE100A4E81B8EE411A61EE200A7E
:10269000FDEEE00A10EE906A00EE900A8E81F8EEF0
:1026A000600A60EE800AFDEEE00A10EE906ACE81CC
:1026B00002D3022053611070E00602D51078022880
:1026C00079D0A006107875D5022871D15069401CC8
:1026D00000EE900AF8EE601A00E08AE0DFED4C0AA6
:1026E0005061B0EE601A01EE801ABDEEC11A11EE13
:1026F000104A01EE100A0C80B8EE412A9FED451AEF
:10270000A842F0EE411A42EE401AFDEEE11A11EE37
:10271000904A01EE900A4C80B8EE612AF0EE601A01
:1027200042EE001AFDEEE11A11EE904A01EE900A17
:102730008C80B8EE612AF0EE411A42EE401AFDEEAE
:10274000E11A11EE904A01EE900ACC80B8EE612AAF
:10275000F0EE601A42EE001AFDEEE11A11EE904A18
:1027600001EE900A0C81B8EE612AF0EE411A42EEB9
:10277000401AFDEEE11A11EE904A01EE900A4C81EA
:10278000F8EE611A41EE800AFDEEE00A10EE904A82
:1027900000EE900A8C81F8EE600A00EEC01ABDEEE1
:1027A000C10A10EE104ACC8102D30320536110708D
:1027B00070BD00E00AE01848088042424A808880E4
:1027C000CA8008814A818881CA81F1E70228EFD155
:1027D000108B0880908B4880108C8880908CC880EB
:1027E000108D0881908D4881108E8881908EC881CF
:1027F000DEE70B804B808B80CB800B814B818B8104
:10280000CB81D5E718000020FC0200202C0000201E
:1028100000D084C600D0844698BDFFFF70470000FA
:1028200030B50F23C27801780125FAB1144A126835
:1028300001F1E02102F4E062C2F5E062C2F3072296
:10284000C2F10404D3404278A24084781C4014436F
:10285000220181F80024007800F01F018D4040091A
:10286000800000F1E020C0F8005130BD01F01F00F1
:1028700085404809800000F1E020C0F8805130BD5B
:102880000CED00E00249084302490860704700006F
:102890000000FA050CED00E010B40021084B0A46D8
:1028A000002003EBC004401CC0B262548028F8D35F
:1028B000491CC9B20829F3D310BC00F0B3B800001A
:1028C000EC04002010B57F2816D83F2914D8072320
:1028D000A3EBD10301F00701C1F107040121A140DD
:1028E000064CDBB204EBC000002AC25CC9B201D0C6
:1028F0000A4300E08A43C25410BD0000EC040020EB
:102900007CB50121042000F0C5FD01264EF2010036
:102910008DF80460002400908DF806408DF8054085
:1029200069463E48FFF772F9012000F007FB0020DE
:1029300000F028FE002000F001FB394DC5F8BC4234
:10294000642005F52F7504F0D3F92E600021AE2028
:1029500000F02AF90021D52000F026F900215020AE
:1029600000F022F90021A82000F01EF900213F20EC
:1029700000F01AF90021D32000F016F900210846D2
:1029800000F012F90021402000F00EF900218D2006
:1029900000F00AF90021142000F006F9002120209F
:1029A00000F002F90021022000F0FEF80021A12031
:1029B00000F0FAF80021C02000F0F6F80021DA203B
:1029C00000F0F2F80021122000F0EEF80021812042
:1029D00000F0EAF80021EF2000F0E6F80021D9200D
:1029E00000F0E2F80021F12000F0DEF80021DB2009
:1029F00000F0DAF80021302000F0D6F80021A42001
:102A000000F0D2F80021A62000F0CEF80021AF207F
:102A100000F0CAF8FFF740FF7CBD0000000802404C
:102A20000000414270B5104E002505F1B000C0B263
:102A3000002100F0B9F80021084600F0B5F80021A7
:102A4000102000F0B1F8002406EBC4000121405D25
:102A500000F0AAF8641CE4B2802CF5D36D1CEDB232
:102A6000082DE2D370BD0000EC0400202DE9F04FEA
:102A7000203A98460D468346894602F0FF0A002612
:102A80002EE0B8F10C0F08D0174901EB0A1000270F
:102A9000845D200607D5099A08E014490AEB4A002C
:102AA00001EB8000F3E7099890B1002229465846CF
:102AB000FFF708FF6D1C6006EDB2040EA5EB0901DF
:102AC000414507D10BF101004D4600F0FF0B05E039
:102AD0000122EBE77F1CFFB2082FDAD3761CF6B297
:102AE0004645CED3BDE8F08F7EC600080AC2000876
:102AF0002DE9FF4F81B00027DDF838B01D46924622
:102B000080463C464FF001094FEA5B0627E0281B50
:102B1000401EC1B20A2006F002F8BAFBF0F00A210A
:102B2000B0FBF1F201FB120027B9691E8C4201DAF9
:102B300048B101273030C2B206FB0480C0B25B4608
:102B4000CDF8009006E006FB0480C0B25B46202270
:102B5000CDF800900299FFF789FF641CE4B2AC4203
:102B6000D5D305B0BDE8F08FF8B516460D4604463E
:102B7000012714E07A2C02D900241035EDB23A2D49
:102B800003D900242546FFF787FE009732780C23EF
:102B900029462046FFF76AFF0834E4B2761C3078F5
:102BA0000028E7D1F8BD000030B500230E4A01240B
:102BB00011B1C2F8804201E0C2F880320021C2F8AF
:102BC000B432050602D5C2F8B84201E0C2F8B83204
:102BD000C2F8B4424006491C000EC9B20829EED31F
:102BE000C2F8804230BD0000000041422DE9F84F9C
:102BF00001258046ADF800501C4800274770ADF80D
:102C000000501B4E1B4C81464FF6FF7A25E0BDF865
:102C1000000010EA080F02D0C6F8845201E0C6F89E
:102C20008472C4F89052052004F07EF8C4F89072C3
:102C3000052004F079F8C4F89052D6F8080230B1B3
:102C400099F80110BDF80020114389F80110BDF872
:102C500000100AEA4100ADF80000BDF80000FF28AE
:102C6000D5D9BDE8F84F102004F05EB8D709002090
:102C7000000041420000404210B5154C0020C4F84D
:102C80008C02102004F5237404F04EF80120FFF7A5
:102C9000ADFF4320FFF7AAFF0020FFF7A7FF0120A9
:102CA000FFF7A4FF0020FFF7A1FF0020FFF79EFF22
:102CB0000020FFF79BFF0020FFF798FF0020FFF7A1
:102CC00095FF01202060BDE81040102004F02CB8D2
:102CD0000000414210B5154C0020C4F88C021020B1
:102CE00004F5237404F020F80120FFF77FFF432050
:102CF000FFF77CFF0020FFF779FF0020FFF776FF4A
:102D00005A20FFF773FF5A20FFF770FF5A20FFF792
:102D10006DFF5A20FFF76AFF5A20FFF767FF012077
:102D20002060BDE81040102003F0FEBF00004142CB
:102D30002DE9FC410121052000F0ACFB0420002519
:102D400000908DF8045003208DF80500134F0124E6
:102D50008DF8074069463846FEF758FF8DF8044065
:102D600010208DF80650022600908DF805608DF831
:102D7000074069460A48FEF749FF8DF804400A20DB
:102D80008DF8065000908DF805608DF80740694673
:102D90003846FEF73BFFBDE8FC810000000802401A
:102DA0000000024010B500F00DF800F00BF800F044
:102DB00009F8FFF761FF00F027F8BDE81040FFF7C2
:102DC00089BF000010B50F4C0020C4F88C02102001
:102DD00004F5237403F0A8FF0120FFF707FF42204A
:102DE000FFF704FF0020FFF701FF0020FFF7FEFEC2
:102DF0000020FFF7FBFE01202060BDE810401020FE
:102E000003F092BF0000414210B5144C0020C4F8FA
:102E10008C02012004F52374FFF7E8FE4420FFF73D
:102E2000E5FE0020FFF7E2FE0120FFF7DFFE0320B2
:102E3000FFF7DCFE0020FFF7D9FE0020FFF7D6FEEB
:102E40000020FFF7D3FE0020FFF7D0FE0120206016
:102E5000BDE81040102003F067BF000000004142B1
:102E60002DE9F0472F48007801F0FAFD2E4A2F484F
:102E700094680168601A00D540420327DFF8B090DB
:102E8000DFF8B0A0DFF8B0804FF0050C3C2817DC6D
:102E9000D068D9F80030C01A00D540423C280FDC79
:102EA0001069DAF80060801B00D540423C2807DC3E
:102EB0005069D8F80050401B00D540423C2812DD34
:102EC0005069803CC0F1800090FBF7F0906210697F
:102ED000C0F1800090FBFCF0D06294FBF7F010632F
:102EE000D06880380FE0C5F1800090FBF7F0906269
:102EF000C6F1800090FBFCF0803BD06293FBF7F0C2
:102F00001063A1F1800090FBFCF091605063D9F850
:102F10000000D060DAF800001061D8F800005061BD
:102F2000BDE8F0876C010020780000204C010020F3
:102F3000500100205401002058010020014908627E
:102F40007047000000000E4270B5274D274E2868DC
:102F5000B6F90010401A00EE100A2548B8EEC00A73
:102F600005F0C0FFBDEEC00A224C84ED000AB6F9A0
:102F700002106868401A00EE100A1D48B8EEC00A38
:102F8000343005F0AFFFBDEEC00A84ED010AB6F99A
:102F90000410A868401A00EE100A1548B8EEC00ADE
:102FA000683005F09FFFB1EE400ABDEEC00A84ED27
:102FB000020AB6F90610E868401A00EE100A0C483A
:102FC000B8EEC00A9C3005F08DFFB1EE400ABDEEB0
:102FD000C00A10EE103AE360D4E90010A268BDE820
:102FE000704000F0F7BC0000000A0020FC02002046
:102FF0001C040020300100202DED028B82B004F073
:1030000087FB0090FE48DFF8FC836FF036094FF431
:10301000167ADFEDFD8ADFF8F4B39FEDFD8AFD4EF1
:1030200001900121684607F01DFA01F0FBFCFA4807
:103030003222514290ED000AB1EE400ABDEEC00AC4
:1030400010EE100A03F0E4FD00EE100AF34CF44811
:10305000B8EEC00A2822514284ED010A90ED000A20
:10306000B1EE400ABDEEC00A10EE100A03F0D0FD2A
:1030700000EE100AA4F11007B8EEC00A84ED000AB1
:1030800094ED010AD7ED010A019830EE600A05F0CF
:1030900029FFA4F12005DA4885ED010A94ED000A24
:1030A000D7ED000A343830EE600A05F01BFFDD4F23
:1030B00085ED000A37224946386803F0A9FDD8F8A3
:1030C0000010D94C081A3722E0604946386803F0EE
:1030D0009FFDD8F800105A22084457422061394613
:1030E000E06803F095FDE0605A223946206903F05C
:1030F0008FFD2061606810B95046C4F804A0401EDE
:103100006060A168514501D10021A160491CA16006
:1031100094ED030AF0EE680AB8EEC00AFEF7DEFA94
:1031200094ED030AF0EE680A6068B8EEC00AFEF794
:103130007BFB94ED040AF0EE680AA068B8EEC00AC2
:10314000FEF718FC94ED040AF0EE680AA068B8EEE9
:10315000C00AFEF7B5FC9BF8000041077ED5B348D6
:10316000007820B1012823D002284ED0CDE0DFED39
:10317000B01AC6ED001A95ED011A9FEDAE2A95ED35
:10318000000A71EE020A70EEC02A70EE800AC6EDE7
:10319000012AC6ED021AC6ED030A72EE410AC6ED17
:1031A000041A30EEC01A86ED051AC6ED061AA8E01C
:1031B000DFED9F0A9948C6ED000A303090ED010A14
:1031C00030EE081A95ED010A71EE001A95ED001A1D
:1031D00071EEC11AC6ED011AC6ED020AD0ED031A4E
:1031E00071EE881A71EE801A71EE811AC6ED031A1B
:1031F000C6ED040AD0ED051A71EE881A71EEC01AF8
:1032000071EEC11AC6ED051A33E08448303090EDF6
:10321000000A86ED000A90ED010A95ED001A70EEA5
:10322000080A95ED010A70EE800A70EEC10AC6ED3B
:10323000010AD0ED020AC6ED020AD0ED030A70EED3
:10324000880A70EE800A70EE810AC6ED030AD0ED9E
:10325000040AC6ED040AD0ED050A00E014E070EEA1
:10326000880A70EEC00A70EEC10AC6ED050AD0EDFC
:10327000060AC6ED060AD0ED070A70EE880A30EE9F
:10328000C00A30EE010A3EE000077FF570AF6348E8
:10329000303090ED000A86ED000A90ED010A95EDC0
:1032A000011A30EE080A70EE010A95ED000A70EE80
:1032B000C00AC6ED010AD0ED020AC6ED020AD0ED41
:1032C000030A70EE880A70EE810A70EE800AC6ED7D
:1032D000030AD0ED040AC6ED040AD0ED050A70EE2B
:1032E000880A70EEC10A70EEC00AC6ED050AD0ED7C
:1032F000060AC6ED060AD0ED070A70EE880A70EEDF
:10330000C10A30EE800A86ED070A96ED010A6FF0D9
:1033100063056FF0E507BDEEC00A2A46394610EE98
:10332000100A03F075FC00EE100A2A463946B8EE82
:10333000C00A86ED010A96ED030ABDEEC00A10EE42
:10334000100A03F065FC00EE100A2A463946B8EE72
:10335000C00A86ED030A96ED050ABDEEC00A10EE1E
:10336000100A03F055FC00EE100A2A463946B8EE62
:10337000C00A86ED050A96ED070ABDEEC00A10EEFA
:10338000100A03F045FC00EE100A22492A48B8EE64
:10339000C00A86ED070A01F095FB27491F48103047
:1033A0000A680368A2EB021202EB820203EB4202FC
:1033B000A2614A684368C2F1B402C2EB021202EB96
:1033C000820203EB4202E2618A688368A2EB021286
:1033D00002EB820203EB42022262CA68C368C2F1B6
:1033E000B402C2EB021202EB820203EB42026262FF
:1033F0000A690369A2EB021202EB82021EE00000DE
:1034000080030020A000002000008CC218000020D3
:10341000000016C32C030020B4000020AC020020E2
:10342000B0000020A40000202C000020210000207B
:1034300000000000000034C30C03002003EB420234
:10344000A2624A694369C2F1B402C2EB021202EB02
:10345000820203EB4202E2628A698369A2EB0212F2
:1034600002EB820203EB42022263C269C869C0F127
:10347000B400C0EB001000EB800002EB4000606382
:10348000FFF7A8F8FFF760FDFDF72CFEFDF730FD14
:10349000C7E50000044A0029116801D0014300E09B
:1034A000814311607047000030380240044A00290F
:1034B000116801D0014300E08143116070470000B2
:1034C00040380240044A0029116801D0014300E05D
:1034D000814311607047000044380240044A0029CB
:1034E000116801D0014300E0814311607047000082
:1034F0002438024070B5204B1968204C11F00C01A3
:1035000004D06610042903D0082903D004601BE00E
:10351000066019E0184A121F1168C1F3805511683E
:1035200001F03F0115B1B6FBF1F101E0B4FBF1F19F
:1035300014681268C4F388146143C2F30142521C38
:103540005200B1FBF2F1016019680F2202EA111179
:103550000B4A545C0168E14041601C68072505EA9C
:103560009424145D21FA04F484601B6805EA533343
:10357000D25CD140C16070BD083802400024F40024
:1035800008020020054900220A700A70012802D0B2
:10359000042801D1052008707047000070380240EF
:1035A00010B563482DED0A8B88B007A906AB02AAB7
:1035B000CDE9000100F12A01243003F01FFD20B104
:1035C000012008B0BDEC0A8B10BD594C2088C00505
:1035D0007ED59DED020AB8EEC00ADFED561AB8EEB0
:1035E000009AB0EE00AA60EE210AC4ED010A9DED3A
:1035F000030A60EE8A0AB8EEC00A20EE211A84EDB2
:10360000021A9DED040A21EE091AB8EEC00A20EE56
:10361000210A84ED030A9DED052AB8EEC22A62EE66
:10362000211AC4ED041A21EE211A00EE801A11EEBF
:10363000100A08F0F7FC41EC100B01F04DFB9FED78
:103640003E8B51EC100B53EC182B08F0F5F907F0FA
:1036500017FFA061D4ED02AA2AEE890A60EE2A0AB9
:1036600094ED030A20EE0ABA4BEE400AB7EE000AC8
:1036700030EE800A10EE100A08F0D4FC94ED040A33
:10368000D4ED010A41EC190B2BEE000A60EE8A0A18
:1036900000EEAA0A10EE100A08F0C4FC41EC100B70
:1036A000B0EE491AF0EE691A01F032FE53EC182B15
:1036B00051EC100B08F0C0F907F0E2FEE061D4ED28
:1036C00001AAD4ED02BA2AEEAA0A0BEEAB0A00E078
:1036D0002CE094ED03CA94ED04BA0CEE4C0A0BEE08
:1036E0004B0A10EE100A08F09DFC2BEE8C0A41EC00
:1036F000190B0AEE8B0A20EE0A0A10EE100A08F0E7
:1037000091FC41EC100BB0EE491AF0EE691A01F091
:10371000FFFD53EC182B51EC100B08F08DF907F05E
:10372000AFFE206206F0D8FA00204AE7022048E700
:10373000C8000020000080306666666666A64C40C1
:103740000021022807D003280BD004280BD005281D
:103750000BD0002070474FF08042506A516200B297
:103760007047044A02E0044A00E0044A106811600D
:1037700000B270472404004024080040240C00409C
:1037800008B503F0C5FF124E0127DFF84880DFF8C7
:103790004890DFF848A0124D00240090642168464C
:1037A00006F060FE307880B92878012801D0AC613D
:1037B0000BE0A869401CA861142806DD88F80040C9
:1037C00089F800408AF8004037702C70E6E7000066
:1037D0001C000020190000201A0000201B000020FF
:1037E000A00100202DE9F041424C41F2883540F61D
:1037F00098072A463946206803F00AFA3E4E2060B0
:103800002A463946306803F003FA39463B4F3060A8
:103810002A46386803F0FCF90546386030682468A9
:103820006FF0C701A5F6AC55A0F6AC50A4F6AC54A9
:103830008D4202DDC82D00DA0025884202DDC8284D
:1038400000DA00208C4202DDC82C00DA002408F0E7
:103850008CF89FED2B1B53EC112B08F0EDF808F0C2
:1038600055F8294EB062684208F07FF89FED271B9B
:1038700053EC112B08F0E0F808F048F8F0623078CB
:10388000244B254D4FF49671002210B1012809D028
:1038900010E0B069884210DA14F5487F16DA401C4F
:1038A000B06107E0F069884204DAB4F5487F01DDD1
:1038B000401CF061B069884208DB3CB9707801288F
:1038C00004D1307005271F6028707270F06988423B
:1038D00009DB44B9B078012805D1022030700321FA
:1038E00019602870B2700D480078BDE8F04101F011
:1038F000B7B80000BC010020C0010020C8010020B2
:103900000AD7A3703D0AB73F780000209A99999989
:103910009999B93F900100201F0000202800002045
:103920000CB50022274900920192086840F48030CB
:1039300008604FF4A043086800F40030019000983C
:10394000401C0090019810B900989842F3D1086883
:10395000800334D5012001901A484030026842F0BB
:10396000805202601848026842F4404202601548E2
:10397000083002680260026842F400420260026895
:1039800042F4A0520260031F104A1A600A6842F013
:1039900080720A600A689201FCD50D4940F20572F6
:1039A0000A60016821F003010160016841F0020131
:1039B00001600168C1F381010229FAD10CBD0192B5
:1039C0000CBD000000380240007000400854400761
:1039D000003C0240F0B5254F00240125244E00286C
:1039E00004DAC6F88052C7F8904203E0C6F8804275
:1039F000C7F8905205F08EF8DFF878C0CCF80000D8
:103A0000002904DAC6F88452C7F8944203E0C6F8E5
:103A10008442C7F89452084605F07CF81549091D00
:103A200008601548002A04DDC6F89052C0F88842A4
:103A300003E0C6F89042C0F88852104605F06AF8D4
:103A40000C4908390860002B04DDC6F89452C7F809
:103A5000B04203E0C6F89442C7F8B052184605F0E9
:103A600059F80449091F0860F0BD000000004142F8
:103A7000008040423C040140008041423A4800B589
:103A8000B0EE401AF0EE601A9FED360AD0ED0E0A45
:103A90009FED362AB5EEC01AF1EE10FA02DD70EE97
:103AA000800A0EE0B5EEC01AF1EE10FA02D270EE06
:103AB000C00A06E0B5EEC01AF1EE10FA03D160EECE
:103AC000820AC0ED0E0A2849F5EEC01AD1ED0F0AA0
:103AD000F1EE10FA02DD30EE800A0EE0F5EEC01ACB
:103AE000F1EE10FA02D230EEC00A06E0F5EEC01A8E
:103AF000F1EE10FA03D120EE820A80ED0F0AB5EE46
:103B0000C01AF1EE10FA15D0B0EE410A03F0ECFD48
:103B1000F0EE400AB0EE410A03F0E6FDB1EE400AD5
:103B2000B0EE601AF0EE400A90ED0E0A06F044F98D
:103B300080ED0E0AF5EEC01AF1EE10FA11D0B0EEDB
:103B4000610A03F0D1FDB0EE401AB0EE610A03F055
:103B5000CBFDF1EE400A90ED0F0A06F02DF980ED55
:103B60000F0A00BDCDCCCC3E780000203333733F2C
:103B70004FF0E0210428086903D020F00400086118
:103B8000704740F00400FAE710B507F011FA012879
:103B900003D0BDE8104006F0FFBE02484168491C52
:103BA000416010BDEC010020124810B5016841F4DD
:103BB000700101601048016841F0010101600E4A86
:103BC00000210832116002680C4B1A400260031D8C
:103BD0000B4A1A60026822F48022026006480C3008
:103BE0000160FFF79DFE03494FF0006080390860D7
:103BF00010BD000088ED00E000380240FFFFF6FE37
:103C00001030002470B5048C24F001040484058B6A
:103C1000048C4FF6FF7606EA0313134325F0F305F1
:103C20002B4324F00A020A4342F00101038301847A
:103C300070BDF0B5048C24F010040484078B068C4E
:103C40004FF6FF7404EA011527F4734704EA0331C1
:103C5000394304EA02220A4326F0A001294341F035
:103C6000100102830184F0BD2DE9F047DFF81882CE
:103C7000864D4FF6FF7698F801004FF4487700061E
:103C80004FF000042DD40221284600F0F9F940B38A
:103C90000221284600F0BBF998F8010040062846AA
:103CA0003DD500F0E5F980B2A8F80800B8F8061094
:103CB0004246884201D2D66300E0D463401AD16BF9
:103CC0000844D061D16A401A00D54042B84200DDB4
:103CD000D161D069D06288F801400021284600F007
:103CE00071FA98F80200000640D40421284600F03A
:103CF000C7F9D8B30421284600F089F998F80200E2
:103D00004006284650D500F0B5F980B2A8F80C005E
:103D1000B8F80A10424688420ED216640DE000F050
:103D2000A7F90146A8F8061098F8011041F04001E3
:103D300088F801100221D1E71464401A116C08447C
:103D40001062116B401A00D54042B84200DD11628A
:103D5000106A41F268011063884201D90120107095
:103D600088F802400021284600F078FA98F803000D
:103D700000063AD40821284600F082F9A8B30821A9
:103D8000284600F044F998F80300400628464BD531
:103D900000F072F980B2A8F81000B8F80E10424690
:103DA00088420ED256640DE000F064F90146A8F88E
:103DB0000A1098F8021041F0400188F80210022120
:103DC000D1E75464401A516C08445062516B401A58
:103DD00000D54042B84200DD5162506A506388F815
:103DE00003400021284600F08BFA98F80400C146F1
:103DF000000647D41021284600F042F9002841D09F
:103E00001021A846284600F002F999F804004D4612
:103E100040062BD5404600F031F980B2A882698A6D
:103E200088420ED2AE640DE000F026F90146A8F8F3
:103E30000E1098F8031041F0400188F80310022199
:103E4000D0E7AC64401AA96C0844A862A96B401A78
:103E500000D54042B84200DDA962A86AA8632C716F
:103E600000214046BDE8F04700F08ABA444640468B
:103E700000F004F968822879022140F0400028719E
:103E80002046EFE7BDE8F087A001002000000140D8
:103E900070B50D46044601218AB00846FFF712FBB3
:103EA00001210846FFF7F6FA4FF4706002220790EE
:103EB0008DF8202003208DF82100364E8DF8232028
:103EC00007A93046FDF7A2FE012208213046FDF782
:103ED000D9FE012209213046FDF7D4FE01220A2134
:103EE0003046FDF7CFFE01220B213046FDF7CAFE1A
:103EF00005940024284EADF81050ADF81840ADF8E8
:103F0000124004A9304600F079FA0125ADF80040CE
:103F1000ADF80450ADF80240ADF80640ADF80840E9
:103F20006946304600F0B8F80420ADF80000694654
:103F3000304600F0B1F80820ADF800006946304680
:103F400000F0AAF80C20ADF800006946304600F0F9
:103F5000A3F81B208DF80C008DF80D408DF80E4055
:103F60008DF80F5003A8FEF75BFC19208DF80C00AC
:103F700003A8FEF755FC1F21304600F048F8012247
:103F80001F21304600F0E6F80121304600F042F8EB
:103F90000AB070BD0000024000000140012101484C
:103FA00000F035B8000001404FF08040018A018ADE
:103FB00021F001010182704703480188018821F046
:103FC000010101807047000010040040034801888F
:103FD000018821F0010101807047000010080040B5
:103FE00003480188018821F0010101807047000029
:103FF000100C00400029018802D041F0800101E04E
:1040000021F0800101807047C94301827047C94394
:10401000018270470029018802D041F0010101E0CE
:1040200021F0010101807047002930F8441F02D0BF
:1040300041F4004101E0C1F30E010180704770B509
:104040000589048B068C25F007050D434FF6FC41CE
:104050000C4040F201110C434FF6FF7101EA0311CD
:1040600026F022061143314305810483018470BD8B
:10407000406B7047806B7047C06B7047006C704737
:1040800002460020138A92890B4202EA010202D002
:10409000002A00D0012070472DE9F0410C460E881F
:1040A0004988A2882389054616B3042E28D0082EF5
:1040B0002E8C4FF6FF702BD026F480562E84AF8BBB
:1040C0002E8C00EA022200EA013127F473473A43BA
:1040D00000EA0330104326F420420A4342F48051A0
:1040E000A8832984E1882846BDE8F04100F07AB928
:1040F000FFF788FDE1882846BDE8F04100F056B999
:10410000FFF797FDE1882846BDE8F04100F056B979
:1041100026F480762E84AF8B2E8C00EA012100EAF3
:104120000310104327F0F307384326F420620A43B4
:1041300042F48071A8832984E1882846BDE8F041D3
:1041400000F048B900210180418001228280C180B5
:1041500001817047002A828901D00A4300E08A4326
:104160008281704730B5028C22F001020284028CF9
:104170008388048B22F0020224F073050C882C4300
:104180008D8915434A882A430C4DA84202D00C4D14
:10419000A8420DD122F00805CA8923F440732A43AE
:1041A00022F004058A882A430D8A1D434B8A2B433B
:1041B0008380048389684163028430BD000001402C
:1041C00000040140028C22F002020A43028470477C
:1041D000028B22F008020A430283704770B5028CFA
:1041E00022F010020284028C8388048B0D8824F450
:1041F000E6464FF6FF7404EA052535438E8922F022
:10420000200204EA061616434A8804EA02123243E0
:10421000104EB04202D0104EB04215D122F08006AE
:10422000CA8923F4406304EA0212324322F04006B2
:104230008A8804EA021232430E8A04EA86061E4382
:104240004B8A04EA8303334383800583896881634F
:10425000028470BD0000014000040140028C4FF652
:10426000FF7322F0200203EA011111430184704719
:10427000028B4FF6FF7322F4006203EA012111431F
:104280000183704770B5028C22F480720284028C24
:104290008388848B0D8824F0730425438E894FF620
:1042A000FF7422F4007204EA062616434A8804EAE0
:1042B00002223243104EB04202D0104EB04215D10D
:1042C00022F40066CA8923F4405304EA02223243EE
:1042D00022F480668A8804EA022232430E8A04EAC3
:1042E00006161E434B8A04EA0313334383808583F7
:1042F0008968C163028470BD000001400004014070
:10430000028C4FF6FF7322F4007203EA012111437D
:1043100001847047828B22F008020A43828370472F
:1043200070B5028C22F480520284058C8288838BC3
:104330000C8823F4E6464FF6FF7303EA0424344363
:1043400025F400568D8903EA053535434E8803EA86
:1043500006362E43084DA84202D0084DA84205D18A
:1043600022F480450A8A03EA82122A4382808483E7
:1043700089680164068470BD0000014000040140AA
:10438000028C4FF6FF7322F4005203EA013111430D
:1043900001847047828B4FF6FF7322F4006203EAB8
:1043A000012111438183704741627047028B22F0E3
:1043B0000C020283028B0A4302837047028B22F4B1
:1043C00040620283028B4FF6FF7303EA01210A4326
:1043D00002837047828B22F00C028283828B0A4315
:1043E00082837047828B22F440628283828B4FF6F5
:1043F000FF7303EA01210A438283704730B50288C4
:10440000164C174DA0420DD0A8420BD0B0F1804FF2
:1044100008D0144B984205D0134B984202D0134B4E
:10442000984203D122F070034A881A43104B9842F5
:1044300006D0104B984203D022F440730A891A43E5
:1044400002804A68C2620A880285A04201D0A8425E
:1044500001D1897A01860121818230BD00000140AD
:10446000000401400004004000080040000C00402F
:1044700000100040001400404FF0FF314160002167
:1044800001800181418081727047000070B5154C38
:1044900040F22551204600F034FA00280ED0204684
:1044A00000F0BCFA104AC1B2D088030406D4440418
:1044B0004FF0000306D50A2901D0D38070BD40F427
:1044C00000400DE00D2909D0C0F30D04074D401C3C
:1044D00080B22955D080C728EFD870BD40F4804005
:1044E000D08070BD00100140F4010020420A00207D
:1044F0002DE9F04740F225512DED028B6A4800F07E
:1045000000FA0122694E6A4C4FF00209002570B38F
:104510006548001D0088A0606649C0B260710D60EA
:1045200065490B7853B9654B1B78012B06D10A708E
:1045300063490D7063490D7063490D70634B644F9F
:104540004B280AD04A280BD0DFF888C1492809D067
:1045500058280DD0592821D016E087F8009034E073
:104560003A701DE00F208CF800003D703CE02DE01B
:10457000DFF8648198F8001061B1002188F800101C
:1045800051B110218CF800103978012908D0022986
:1045900013D01BE00121F1E70421F3E70E21F1E73D
:1045A000A0F141034D49072B01D8403801E008280C
:1045B00001D808700AE00D7008E041280CD04328AB
:1045C0000CD045280CD047280CD01D7060797B2872
:1045D00010D07D2815D007E01A7005E0032002E016
:1045E000052000E0072018706078012803D0022819
:1045F00009D054E06270A07861793154401CA070F9
:104600004DE084F80190F078502805D07078232888
:104610003AD0A078E07029E03148027034E0A17807
:10462000081A07F0A2F941EC110B9FED2E0B01F0D7
:10463000BFF8E778B0EE408AF019F0EE608A10F823
:10464000010C303807F091F953EC182B07F0F4F90E
:1046500041EC180BE06807F0E5FC53EC182B06F072
:1046600041FF06F00DFF7F1EE060E770E078042850
:10467000D5D27078302807D194ED030A1B49BDEEDE
:10468000C00A10EE100A08806570A5709FED180A28
:10469000E57084ED030A32210448FBF7AEFFBDEC60
:1046A000028B0020BDE8F08700440040100A002083
:1046B000F4010020B8010020190000201E00002095
:1046C0001A0000201B0000201C00002024000020F5
:1046D00025000020270000201D00002022000020CF
:1046E0002300002000000000000024407E00002085
:1046F000000000002DE9F047664C40F2255A2DEDF0
:10470000028B5146204600F0FCF8002814D0A14648
:10471000204600F083F9C1B25F48007840B1604A9A
:104720005E4F604B1078002639541C782CB10EE097
:104730005146484600F0D8F8A9E05B4C26705B4C27
:10474000267001241C705A4B1E705A4B1E607B2928
:1047500000D028B1401CC0B210700B2802D096E0E7
:10476000167094E01670B87A7D287DD1002109205A
:10477000FCF7F8FC797A884276D100210920FCF711
:10478000F1FC4D4D4D4C4FF00E087B280AD0787946
:104790000F2448B32EE0B0EE480AF0EE400AFFF7CF
:1047A0006DF903E09FED468A464E474F96ED000AAD
:1047B000B0EEC00A10EE100AA042ECDA97ED000A43
:1047C000B0EEC00A10EE100AA042E4DA404685F8C6
:1047D000008000F045F95146484600F085F8012078
:1047E000BDEC028BBDE8F087B87918B9F87908B943
:1047F000387AC8B1404685F8008000F031F920468B
:104800002C7000F02DF97979B879090200FA81F05D
:10481000FA79397A00B2120201FA82F12B4A09B20E
:1048200010602B48016083E720462C7000F018F9D7
:104830007978B878090200FA81F0FA78397900B20B
:10484000120201FA82F1C0EB00100CB200EB400042
:1048500007F08BF89FED1F8B53EC182B07F0ECF84B
:1048600007F054F81D4900E011E008601C4806609C
:1048700004EBC40000EB041007F077F853EC182B9E
:1048800007F0DAF807F042F81649086050E7002010
:10489000A6E70000004800401E000020CC090020D0
:1048A000400100201B0000201A00002019000020F9
:1048B0001C000020B8010020260000206F12833A5F
:1048C00000000000B0000020B4000020A80000207C
:1048D000AC0000207B14AE47E17A843FA0000020AA
:1048E000B8000020A4000020C943018070470029BF
:1048F000818902D041F4005101E021F4005181810D
:10490000704770B501F01F0501260024C1F3421362
:1049100006FA05F2012B0FD0022B0FD0838A4FEA43
:1049200011210088134206FA01F600EA060001D0C0
:1049300000B10124204670BD8389F0E7038AEEE7C9
:1049400010B5C1F3421301F01F040121A140012B56
:1049500007D0022B07D01430002A026805D00A4382
:1049600004E00C30F8E71030F6E78A43026010BD2F
:104970007FB50446008A0D46C98820F440500143A3
:104980002182A08941F20C618843A9882A891143B8
:104990006A8902431143A181A08A20F44071A88949
:1049A0000843A0826846FEF7A5FD1A48844202D05B
:1049B0001948844201D1039800E00298A1890904B2
:1049C00000EBC00101EB0010296801D5490000E0AF
:1049D0008900B0FBF1F06422B0FBF2F109010B0990
:1049E0006FF018056B4300EB8300A3891D044FF0A3
:1049F000320306D503EBC000B0FBF2F000F0070075
:104A000005E003EB0010B0FBF2F000F00F000843EC
:104A100020817FBD00100140001401408088C0F358
:104A20000800704700B50220FEF78AFE0B4B19689C
:104A3000084418600320FEF783FE59680844586054
:104A40000520FEF77DFE9968084498600420FEF773
:104A500077FED9680844D86000BD0000000A002035
:104A6000174A10B51378112823F0040126D2DFE885
:104A700000F0250925250C25252525252525251189
:104A8000161B200023F0040017E021F0380040F04E
:104A9000020012E021F0300040F008000DE021F0AB
:104AA000280040F0100008E023F0380040F0040037
:104AB00003E021F0180040F02000107010BD00004D
:104AC0001800002070B50C4691EC020A0546FDF76F
:104AD00055FBBDEEC00A85ED000A94EC020AFDF715
:104AE0008FFBBDEEC00A85ED010AD4ED030A94EDFB
:104AF000020AFDF743FBBDEEC00A85ED020AD4EDC4
:104B0000030A94ED020AFDF77BFBBDEEC00A85EDBA
:104B1000030AD4ED050A94ED040AFDF72FFBBDEE60
:104B2000C00A85ED040AD4ED050A94ED040AFDF7E8
:104B300067FBBDEEC00A85ED050AD4ED070A94EDCA
:104B4000060AFDF71BFBBDEEC00A85ED060AD4ED93
:104B5000070A94ED060AFDF753FBBDEEC00A85ED8A
:104B6000070A70BDFEE703B401984100009850EABF
:104B7000C12018BF04204A0D18BF40F0010040F2C8
:104B8000FF72B2EB515F08BF40F00200012808BF7E
:104B9000052002B070474100080218BF04200A0E29
:104BA00018BF40F001004FF07F4232EA010108BF18
:104BB00040F00200012808BF0520704710B510EE34
:104BC000104A4FF01A402DED028B00EB4400B0F17B
:104BD000C85F4AD84FF0FC40B0EB440F22D2B0EE91
:104BE000C00AF7EE000A30EEC00AF6EE000A20EE28
:104BF000208A18EE100A04F0A0FF00EE100A14F04C
:104C0000004F1DBF9FED281ADFED280AB1EE400AC4
:104C10009FED271A08BFF0EE410AF8EE001A20EEC9
:104C2000210A05E020EE008A9FED221ADFED220A1C
:104C3000DFED221A9FED222A70EEC00A20EE080A4C
:104C400008EE212ADFED1F1A48EE021A9FED1E2AF8
:104C500008EE212ADFED1D1A48EE021ABDEC028B88
:104C600040EE610A30EE810A10BD4FF0CC40B0EB4F
:104C7000440F82BF9FED160ABDEC028B10BD4FF0B2
:104C80007F40B0EB440F05D2BDEC028BBDE8104075
:104C900001F076BD0120FBF752FDBDEC028BBDE8B3
:104CA000104001F071BD00000000494022AA7D3A89
:104CB000000000000000C93F22AAFD3924FE1C3D6F
:104CC000C78AD83C1E67383D1B93993DAFAA2A3E40
:104CD000DB0FC93F0000000070B5C1482DED020B8D
:104CE0002DED0E8B82B0119D25F000449FEDBEDBB3
:104CF0009FEDBFEB84423EDBA4F140511098A1F13F
:104D00007F6108430FD0BC48844202DC28D1109850
:104D100030B39DED100B02B0BDEC0E8B02B0BDE8C0
:104D2000704001F0E9BC9DED100B53EC1D2B51ECD4
:104D3000100B06F081FE9DED100B41EC180B53ECAF
:104D40001E2B51EC100B06F077FE53EC182B06F0DF
:104D5000C9FB41EC100B02B0BDEC0E8B02B070BD74
:104D60000120FBF7ECFC02B0BDEC0E8B02B0BDE8FD
:104D7000704001F0D5BCA1489FEDA18B844256DA6A
:104D80009DED100BB4F1795F0ADA51EC100BFFF7CF
:104D9000EAFE042808BF01F0E3FC9DED100BDAE702
:104DA00053EC102B51EC100B06F046FE41EC190BA6
:104DB00095480621B0EE490AF0EE690A784401F000
:104DC00004FC53EC192B51EC100B06F035FE41ECB2
:104DD0001A0B8E48B0EE490AF0EE690A04217844B5
:104DE00001F0F3FB53EC192B51EC100B06F024FEF1
:104DF00053EC182B06F076FB41EC100B51EC1A0B20
:104E000053EC102B06F02AFCCDE900019DED000BC0
:104E100053EC102B9DED100B51EC100B06F00CFE1B
:104E20009DED101B53EC112B06F05CFBD2E09DEDC9
:104E3000100B51EC100B02F04BFC53EC182B06F04E
:104E40002FFF9FED730BCDE9000153EC102B9DED6F
:104E5000000B51EC100B06F0EFFD41EC190B6E4806
:104E60000621B0EE490AF0EE690A784401F0ADFB84
:104E700053EC192B51EC100B06F0DEFD41EC1B0B33
:104E80006648B0EE490AF0EE690A0421784401F060
:104E90009CFB53EC192B51EC100B06F0CDFD53ECA1
:104EA000182B06F01FFB41EC1C0B51EC190B04F006
:104EB0000DFE41EC180B5A489FED5BABA04222DC83
:104EC00053EC1C2B51EC1B0B06F0C8FBCDE9000189
:104ED0009DED000B51EC180B53EC102B06F0ACFDC4
:104EE00053EC182B06F0FEFA53EC1A2B06F0A4FD37
:104EF00053EC1D2B06F0ACFF53EC1E2B06F0D0FE3E
:104F000041EC100B5FE08DED008B002000909DEDDB
:104F1000000B51EC180B53EC102B06F0E3FA9DED4F
:104F2000000B41EC1E0B53EC102B51EC100B06F058
:104F300083FD53EC192B06F0B3FE53EC1E2B06F049
:104F40008DFB41EC190B53EC1C2B51EC1B0B06F0A9
:104F500085FB41EC1B0B53EC1A2B51EC190B06F0A3
:104F60006BFD53EC1D2B06F09BFE41EC190B53EC33
:104F70001A2B51EC180B06F05FFD53EC1B2B06F0BF
:104F80005BFD53EC192B06F063FF9DED000B41EC2C
:104F9000180B53EC1A2B51EC100B06F04DFD9FED46
:104FA000249B53EC192B06F07BFE41EC100B51ECCB
:104FB000180B53EC102B06F04BFF53EC192B06F09B
:104FC0006FFE41EC100B002D3FF7C5AE51EC100BFE
:104FD00006F04AFA41EC100BBDE6000000000000AC
:104FE0000000F03F00000000075C143326A6913C4F
:104FF000182D4454FB21F93F0000F07F0000E03FF2
:10500000000000000000F03FF88A0000068B00005E
:10501000000000000000E03F4A8A0000588A0000BB
:105020003333EF3F000000000000000000000040AC
:10503000182D4454FB21E93F70B59B482DED020B20
:105040002DED068B079D25F00044A04218DC974803
:10505000844202DC0AD1069840B19DED060BBDECFE
:10506000068B02B0BDE8704001F046BB002DCCBFFE
:105070009FED8F0B9FED900BBDEC068B02B070BDCA
:105080008F48A04215DD8F48A042D8BF4FF0FF34B3
:1050900058DD9DED060B51EC100BFFF764FD042865
:1050A00008BF01F05DFB9DED060BBDEC068B02B069
:1050B00070BD9DED060B51EC100B02F009FBCDE924
:1050C000060181489FED828BA0423CDD8248A042D0
:1050D0001FDD00249FED82AB9DED060B53EC1A2BD8
:1050E00051EC100B06F0FEF99DED060B41EC190B8F
:1050F00053EC1A2B51EC100B06F09EFC53EC182BC2
:1051000006F0A6FE53EC192B06F0A8FACDE906012D
:1051100049E09DED060B012453EC182B51EC100BCC
:1051200006F0E0F99DED060B41EC190B53EC182B42
:1051300051EC100B06F08CFE53EC192B06F08EFA96
:10514000CDE906012FE06848A0421FDD02249FED53
:10515000689B9DED060B53EC192B51EC100B06F0E0
:105160006BFC53EC182B06F0BDF99DED060B41ECE2
:10517000180B53EC192B51EC100B06F069FE53EC95
:10518000182B06F06BFACDE906010CE09DED060B3D
:10519000032453EC102B9FED580B51EC100B06F031
:1051A0005DFACDE906019DED060B53EC102B51EC99
:1051B000100B06F041FC41EC180B53EC182B06F0D9
:1051C0003BFC41EC190B4E480621B0EE490AF0EECB
:1051D000690A784401F0F9F953EC182B51EC100BE3
:1051E00006F02AFC41EC180B4648B0EE490AF0EEF6
:1051F000690A0521784401F0E8F953EC192B51ECC8
:10520000100B06F019FC41EC100B51EC180B53EC91
:10521000102B002C0EDA06F065F99DED061B53EC01
:10522000112B06F009FC9DED061B53EC112B06F02B
:1052300037FD35E006F056F99DED061B53EC112BBA
:1052400006F0FAFB41EC100B2F48784400EBC40049
:1052500090ED001B51EC100B53EC112B06F0F8FDF8
:105260009DED061B53EC112B06F0F2FD41EC100BEB
:105270002648784400EBC40090ED001B51EC100B65
:1052800053EC112B06F00CFD41EC100B002DA2BFCE
:10529000BDEC068B02B070BD51EC100B06F0E4F8CB
:1052A00041EC100B01E70000000010440000F07F0B
:1052B000182D4454FB21F93F182D4454FB21F9BF0C
:1052C0000000DC3F0000203E0000F33F0000000033
:1052D000000000000000F03F0000E63F000000007A
:1052E00000000000000000400080034000000000BB
:1052F000000000000000F83F000000000000F0BFC8
:1053000022880000D8870000628700001A8700000A
:1053100070B56B4E2DED040B2DED028B82B0DDF8D8
:105320001CC0DDE905235C422CF000411C4341EA2E
:10533000D474049D22F00040B44205D86C422C4342
:1053400040EAD474B4420BD99DED061B9DED040BCD
:1053500002B0BDEC028B04B0BDE8704001F0D6B9DC
:10536000ACF14054A4F17F641C430BD0022404EA46
:10537000AC7444EAD27405439FED538B9FED542BDC
:1053800007D015E09DED040B51EC100B01F084FBF0
:1053900042E0002C11BF012C9DED040B02B0BDECCE
:1053A000028B04BF04B070BD022C38D0032C3BD05C
:1053B0000B439FED491B9FED4A0B0AD0B14218D118
:1053C000B04209D121F0804120F080400791059042
:1053D0000FE0002A15DA10E0434B7B44002C08BF95
:1053E00093ED000B0DD0012C10D0022C17D0032C04
:1053F0001AD0B0421DD1002A03DAB0EE410AF0EE15
:10540000610A02B0BDEC028B04B070BD93ED000BDD
:1054100051EC100B06F028F841EC100BF1E7B0EE60
:10542000480AF0EE680AECE7B0EE420AF0EE620AD3
:10543000E7E7401A00153C28C8BF8DED000B19DCCA
:10544000BCF1000FBEBF10F13C0F9FED290B8DED9D
:10545000000B0FDB9DED060B53EC102B9DED040BA9
:1054600051EC100B06F0FAF802F032F901F014FBDF
:10547000CDE90001002C08BF9DED000BC1D0012C2F
:1054800010D0022C9FED1C0B53EC102B9DED000B4C
:1054900051EC100B0DD006F0DBFC53EC182B06F092
:1054A000D7FCB9E7019880F0004001909DED000B1A
:1054B000A7E706F0CDFC53EC182B06F0F1FBABE7A9
:1054C0000000F07F00000000182D4454FB2109402B
:1054D000182D4454FB2109C0182D4454FB21F9BF59
:1054E000182D4454FB21F93F4A86000000000000BB
:1054F0000000000000000000075C143326A6A13C59
:1055000010B54FF00E412DED028BB0EE408A18EE33
:10551000100A01EB4001B1F1145F5CD24FF0FE4183
:10552000B1EB400F24BF9FED400AF0EE400A12D2CB
:1055300010F0004F19BFDFED3D0A9FED3D0ADFED92
:105540003D0A9FED3D0AFFEE001A81EE881AB0EE8B
:10555000418A18EE100A4FF0FC41B1EB400F1BD20C
:1055600010F0004FDFED351A9FED352A1DBFBEEE5E
:10557000001A70EEE10A30EE420AB6EE001A04BFDD
:1055800070EEA10A30EE020A38EE412AF7EE001A58
:1055900048EE011A82EE218ADFED2A1A9FED2A2AAF
:1055A00028EE081A01EE212ADFED281A41EE021A30
:1055B0009FED272A01EE212ADFED261A41EE021A7D
:1055C00028EE011A01EE210A30EE080ABDEC028B2A
:1055D00030EE200A10BD4FF0E441B1EB400F0CD982
:1055E00018EE100AFFF7D7FA042808BF01F0D4F824
:1055F000B0EE480ABDEC028B10BD4FF07F41B1EB1D
:10560000400F07D2B0EE480ABDEC028BBDE8104057
:1056100001F0B6B810F0004F14BF9FED0F0A9FEDD8
:105620000F0ABDEC028B10BD000000000000C9BFD6
:1056300022AAFDB90000C93F22AAFD390060ED3E53
:10564000C30ACE372DAD65BD8FB8D53D0FB511BEA0
:1056500061C84C3EA8AAAABEDB0FC9BFDB0FC93F79
:1056600010EE101A08B5444A6846B2EB410F28D92B
:105670004FF0E640B0EB410F94BF00204FF0FF30F9
:1056800000900098002861DB60EE000A10F0010F26
:1056900045D010F0020FDFED391A9FED391A00EEF8
:1056A000E11ADFED381A40EE811A21EEA01AF0EE71
:1056B000400A40EE010A08BFF1EE600AB0EE600A4F
:1056C00008BD314B21F0004293423CD911F0004F0C
:1056D000DFED2E0A20EE201ADFED2D0A19BF31EE84
:1056E000601A71EE200A31EE201A71EE600ABDEEEA
:1056F000E01A11EE100A9FED271A00F0030000EEE9
:10570000C10A9FED251A009000EEC10A9FED231AF1
:1057100000EEC10A9FED221A00EEC10AB1E79FED2B
:10572000211A9FED210A10F0020F00EE810A9FED71
:105730001F1A00EE801AB7EE000A00EE810A18BFA9
:10574000B1EE400A08BD01F02FF89AE710EE100AFA
:105750004000B0F17F4F3CBFB7EE000A08BD07D153
:105760004FF00100FAF7EBFFBDE8084001F00CB87C
:10577000BDE8084001F004B8B61F927E336D4C3985
:10578000DA82083CA0AA2ABE490E494683F9223F84
:105790000000004B0000C93F00A0FD390020A233EB
:1057A0001A61342CB93AB2BACA9F2A3DDDFFFFBE56
:1057B0002DE9F04D2DED040B2DED0E8B96B0DDE9AE
:1057C0002550279CDDF890A025F0004624F00048E5
:1057D000BAF1000F14BF0121002101EB4502FC4981
:1057E00053184A1093422AD3002814BF01230023E0
:1057F00003EB44030B44F7498B4220D358EA0001E2
:105800009FEDF59B76D0DFF8D8B35D4503D1BAF1B3
:10581000000F05D188E0BAF1000F08BF002100D0C9
:10582000012101EB450111F5001F08D8002814BF24
:105830000121002101EB440111F5001F0BD99DED61
:10584000261B9DED240B16B0BDEC0E8B04B0BDE8FD
:10585000F04D00F05BBF0027002DBCBFE14988453B
:1058600021DAE1498845A8BF02271CDAC3451ADCC2
:10587000DE4901EB2851142908DDC1F1340220FA78
:1058800002F101FA02F282420DD108E058B9C1F1E9
:10589000140228FA02F101FA02F2424503D101F0A2
:1058A0000101C1F1020756EA0A0124D1002C22DAD3
:1058B000002D18BF022F01D0012F0AD00220FAF7C5
:1058C0003EFF16B0BDEC0E8B04B0BDE8F04D00F00D
:1058D000FBBE0220FAF733FF00F0F6FE51EC100B8E
:1058E00005F0C2FD41EC100B16B0BDEC0E8B04B000
:1058F000BDE8F08D18E09FEDBEAB9FEDBF8B00289B
:1059000071D1B848804522D105F1804010F5801052
:1059100008BFBAF1000F07D0B3450ADC002CA8BFBE
:105920009DED260BE0DA0DE0B0EE490AF0EE690AD3
:10593000DAE7002C06DA9DED260B51EC100B05F092
:1059400093FD6FE0AE48784490ED000BCCE7D8456E
:105950004DD1002C48DA2EB186423AD1BAF1000F6F
:1059600042D126E0BAF1000F13D00220FAF7E7FE89
:1059700000F0E6FE8DED020B9DED240B8DED000B8E
:1059800010EE900A039961F31E0003909DED020B47
:10599000AAE78DED02AB9DED240B1AEE901A10EEE6
:1059A000900A8DED000B61F31E0003909DED020B3C
:1059B0009AE78DED028B9DED240B18EE901A10EEF8
:1059C000900A8DED000B61F31E0003909DED020B1C
:1059D0008AE709DA9DED240B51EC190B53EC102BDF
:1059E00005F03CFE1EE020E09DED240B7CE78642A6
:1059F0001BDAB4F1804F0DD0A4F10050B0F1FF508C
:105A000013D1002D11DB9DED240B51EC100B04F094
:105A10005DF807E09DED240B53EC102B51EC100BBF
:105A200000F0C2BC41EC100B5EE79DED240B51EC85
:105A3000100B01F04DFEBAF1000FCDE90E0142D17D
:105A40009FED710B46B3A6F1E040B0F17F600CD042
:105A50005E4538D1002D00DAA7B3022F0CBF01201C
:105A60004FF0FF3005F081FFDCE7002D01DD002C59
:105A70000DDA002D01DD002C1FDB002D16DA002CC5
:105A800014DB012F08BF9FED620B3FF42DAFB0EE8A
:105A90004A0AF0EE6A0A27E7022F18BF002D0CD041
:105AA000012F0AD1002DFFF61FAF06E0002DB8BF71
:105AB000002C08DA012F3FF417AFB0EE480AF0EEE1
:105AC000680A11E71BE0012000EBE57050EA0701CE
:105AD00015D0791EB0EE498AF0EE698A084308BFF6
